:02000004080AE8
:1000000000000A08441C0A0800000300060005015D
:080010000402070000000000DB
:10001800AC180A08074B70B51E46074C0025E41AB1
:10002800A408A54204D056F8253098470135F8E7CA
:1000380070BD00BF7C1B0A08B01B0A0809480A49A2
:1000480008B5884205D0094A824202D0121A01F046
:1000580067FB0748074A0021121A01F06CFB0648A3
:1000680008BD00BF00030020B01B0A086C03002075
:100078006C030020280500202805002000F024B883
:1000880000F05CB800F0BCBD00F0C2BD03460A46F3
:100098000148194600F0D2BA7003002003460A4608
:1000A8000148194600F036BB7003002007B500214F
:1000B80000913C220B46034800F08AFD03B05DF82E
:1000C80004FB00BFC0180A0837B5174D002428469E
:1000D80000F078FB00F042FE22462346009401948B
:1000E8001249134800F07CFD2246234600940194EF
:1000F8001049114800F074FD28465A2100F0CAF949
:1001080028465A2100F0DEF928465A2100F0CEF997
:100118000F20012101F042F921460C2003B0BDE86F
:10012800304001F03BB900BF7003002095000A0879
:10013800CB180A08A5000A08D6180A0808B51448F2
:1001480000F018FB0C2001F053F9012808D11149DF
:10015800114800F076FEFFF7A9FFFA2000F07AFDBB
:100168000B4B1B6AB3F52F7F10DD0C490A4800F0D2
:1001780068FE01210F2001F022F9642000F06AFDD9
:10018800BDE808400F20002101F019B908BD00BFE3
:1001980070030020DA180A086C040020EA180A081C
:1001A80008B500F0E3FB054B00211860012000F0C2
:1001B800F7FCBDE80840024800F025B99803002084
:1001C8007003002090F82420012322B1002280F837
:1001D80024201846704780F8243002207047000019
:1001E80030B50C4695B0054600226846032300F05A
:1001F800A1FF04A821460422072300F09BFF082240
:100208000B23214608A800F095FF684600F0BAFFC6
:1002180081B2032001F016F9684600F0B3FF2861A7
:1002280004A800F0AFFF81B2132001F00BF904A875
:1002380000F0A8FF686108A800F0A4FF81B21120AF
:1002480001F000F908A800F09DFF3749A86110A83F
:1002580000F015FF214610A800F05FFF0346334C5D
:100268001968204600F0EDFD10A800F0C6FE3049E0
:1002780010A800F004FF684600F084FF0A22014637
:100288000CA800F020FF0CA910A800F046FF0346B8
:100298002046196800F0D5FD0CA800F0AEFE10A8A5
:1002A80000F0ABFE234910A800F0E9FE04A800F016
:1002B80069FF0A2201460CA800F005FF0CA910A846
:1002C80000F02BFF03462046196800F0BAFD0CA881
:1002D80000F093FE10A800F090FE174910A800F057
:1002E800CEFE08A800F04EFF0A2201460CA800F036
:1002F800EAFE0CA910A800F010FF03462046196872
:1003080000F09FFD0CA800F078FE10A800F075FE24
:1003180008A800F072FE04A800F06FFE684600F01E
:100328006CFE012015B030BDF1180A086C040020DD
:1003380002190A0807190A080E190A0802220023D6
:1003480000F036BC022A38B5044605D0032A0FD07F
:10035800012A10D10B6809E00C200D68FFF792FE06
:10036800034618B195E8070083E80700236002E018
:100378000068FFF789FE002038BD000070B58B6863
:1003880006460C46B3B11020FFF77CFE054688B13F
:1003980000238360A36833B1214602229847E368AB
:1003A800EB60A368AB6029463246BDE8704002485E
:1003B80000F06FBC002070BD630C0A0830B50268FD
:1003C80085B05368946813F0010F4FEA630315680A
:1003D80018BFE25868461C4418BF555900F0FDFD87
:1003E80069462046A8470446684600F006FE2046AF
:1003F80005B030BD10B58368044613B10146032229
:100408009847204610BD0022026042608260026167
:1004180042618261C26180F82420704738B5044681
:10042800FF21032001F00EF8FF230025236111208E
:10043800002101F007F8A5611320294601F002F810
:10044800656138BD38B5054600240320002100F059
:10045800F9FF1120FF212C6100F0F4FFAC6113209B
:10046800214600F0EFFF6C6138BD38B50446002521
:100478000320002100F0E6FF11202946256100F045
:10048800E1FFA5611320FF2100F0DCFFFF2363617A
:1004980038BD000008B5044800F01CFDBDE8084060
:1004A8000F2000F0D7BB00BF9C03002008B504480C
:1004B80000F010FDBDE808400F2000F0CBBB00BFE6
:1004C800B003002008B5044800F004FDBDE808406A
:1004D8000F2000F0BFBB00BFC003002030B50C46A2
:1004E80095B0002203230546684600F023FE04A8C1
:1004F80021460422072300F01DFE08A821460822F1
:100508000B2300F017FE684600F03CFEC82806D012
:10051800684600F037FE01462846FFF7BBFF04A8EF
:1005280000F030FEC82806D004A800F02BFE0146D3
:100538002846FFF7BBFF08A800F024FEC82806D00D
:1005480008A800F01FFE01462846FFF7BBFF10A8C9
:10055800354900F094FD214610A800F0DEFD034661
:100568003248196800F06DFC10A800F046FD3049CB
:1005780010A800F084FD684600F004FE0A22014637
:100588000CA800F0A0FD0CA910A800F0C6FD0346B9
:100598002648196800F055FC0CA800F02EFD10A89C
:1005A80000F02BFD234910A800F069FD04A800F015
:1005B800E9FD0A2201460CA800F085FD0CA910A847
:1005C80000F0ABFD03461948196800F03AFC0CA886
:1005D80000F013FD10A800F010FD174910A800F056
:1005E8004EFD08A800F0CEFD0A2201460CA800F036
:1005F8006AFD0CA910A800F090FD03460B48196885
:1006080000F01FFC0CA800F0F8FC10A800F0F5FCA6
:1006180008A800F0F2FC04A800F0EFFC684600F01F
:10062800ECFC012015B030BD27190A086C04002025
:1006380039190A0840190A0848190A08F0B590F843
:10064800243091B00446002B61D01146684600F072
:1006580016FD04A869460022032300F06BFD08A8D4
:1006680069460322062300F065FD0CA869460622A8
:10067800092300F05FFD04A800F084FD002840DB9A
:1006880004A800F07FFDB4283BDC012608A800F090
:1006980079FD002837DB08A800F074FDB42832DCA7
:1006A80001270CA800F06EFD00282EDB0CA800F036
:1006B80069FDB42829DC012536B104A800F062FDE3
:1006C80001462046FFF7E6FE37B108A800F05AFDBC
:1006D80001462046FFF7EAFE35B10CA800F052FDAE
:1006E80001462046FFF7EEFE0CA800F086FC08A89D
:1006F80000F083FC04A800F080FC684600F07DFC54
:1007080005E00026C2E70027CBE70025D4E711B0B3
:10071800F0BD000038B590F8243004461546CBB13A
:1007280010460D4901F00FF810B92046FFF776FE84
:1007380028460A4901F007F810B92046FFF782FE5B
:100748002846074900F0FFFF20B92046BDE8384099
:10075800FFF78BBE38BD00BF14190A0818190A081C
:100768001D190A0808B50D2000F055FE042390FB5A
:10077800F3F008BD10B504460A2000F04CFEE06016
:100788002046FFF7EFFF206210BD000038B50023B8
:10079800836004460C200D46FFF774FC034628B11D
:1007A80095E8030083E80300AA689A602360034B76
:1007B8002046E360024BA36038BD00BFC5030A08AA
:1007C8004D030A0870B5054690B00024B4268DE89C
:1007D800500002214FF408724FF41663404800F0AD
:1007E800B9FB8DE8500001214FF408724FF41663ED
:1007F8003C4800F0AFFB4FF408724FF416632146F3
:100808008DE85000384800F0A5FB2146072000F08D
:10081800C5FD2146062000F0C1FD21460A2000F052
:10082800BDFD21460D2000F0B9FD0320012100F097
:10083800B5FD1120012100F0B1FD1320012100F0C8
:10084800ADFD1220012100F0A9FD29462748FFF738
:1008580075FD291D2648FFF771FD05F1080125489A
:10086800FFF76CFD05F10C012348FFF767FD05F163
:1008780020012248FFF762FD214B03A90CA803932E
:1008880004940595FFF782FF0CA91E48FFF776FD33
:100898000CA8FFF7AFFD1C4B06A90CA806930794FC
:1008A8000895FFF773FF0CA91848FFF767FD0CA818
:1008B800FFF7A0FD164B09A90CA809930A940B95FC
:1008C800FFF764FF0CA91348FFF758FD0CA8FFF7C2
:1008D80091FD11484FF4165100F0D0FC10B070BDD6
:1008E8009C030020C0030020B00300204F190A0811
:1008F80054190A085D190A0865190A0870190A08BE
:10090800E5040A0876190A08E9010A0881190A089B
:10091800CD010A088C190A086C04002008B500F0FB
:1009280025F8064B1860064800F0FFFA054800F065
:10093800FCFABDE80840044800F0F7BAAC03002010
:10094800B0030020C00300209C03002008B5024B20
:100958001B689B6A019308BD9C01060808B5024BF9
:100968001B685B6B019308BD9C01060808B5024B28
:100978001B681B68019308BDB001060808B5024B47
:100988001B685B68019308BDB001060808B5024BF7
:100998001B689B68019308BDB001060808B5024BA7
:1009A8001B68DB68019308BDB001060808B5024B57
:1009B8001B681B69019308BDB001060808B5024B06
:1009C8001B685B69019308BDB001060808B5024BB6
:1009D8001B681B6A019308BDB001060808B5024BE5
:1009E8001B689B6A019308BDB001060808B5024B55
:1009F8001B681B6B019308BDB001060808B5024BC4
:100A08001B685B6B019308BDB001060808B5024B73
:100A18001B681B6E019308BDAC01060808B5024BA4
:100A28001B685B6E019308BDAC01060808B5024B54
:100A38001B689B6E019308BDAC01060808B5024B04
:100A48001B68DB6E019308BDAC01060808B5024BB4
:100A58001B681B6F019308BDAC01060808B5024B63
:100A68001B685B6F019308BDAC01060808B5034B12
:100A78001B68D3F88030019308BD0000AC0106085C
:100A880008B5024B1B681B69019308BDA80106083D
:100A980008B5024B1B685B69019308BDA8010608ED
:100AA80008B5024B1B689B69019308BDA80106089D
:100AB80008B5024B1B68DB69019308BDB401060841
:100AC80008B5024B1B681B6A019308BDB4010608F0
:100AD80008B5024B1B681B68019308BDC4010608D2
:100AE80008B5024B1B685B68019308BDC401060882
:100AF80008B5024B1B689B68019308BDC401060832
:100B080008B5024B1B68DB68019308BDC4010608E1
:100B180008B5024B1B689B69019308BDC401060810
:100B280008B5024B1B685B6A019308BDC40106083F
:100B380008B5024B1B689B6A019308BDC4010608EF
:100B480008B5024B1B68DB6A019308BDC40106089F
:100B580008B5024B1B681B6B019308BDC40106084E
:100B680008B5024B1B685B6B019308BDC4010608FE
:100B780008B5024B1B689B6B019308BDC4010608AE
:100B880008B5024B1B685B68019308BDA401060801
:100B980008B5024B1B685B69019308BDA4010608F0
:100BA80008B5024B1B68DB6A019308BDA40106085F
:100BB80008B5024B1B681B68019308BDCC010608E9
:100BC80008B5024B1B685B68019308BDCC01060899
:100BD80008B5024B1B681B6A019308BDCC010608C7
:100BE80008B5024B1B685B6A019308BDCC01060877
:100BF80008B5024B1B681B69019308BDC8010608AC
:100C080008B5024B1B681B68019308BDA0010608C4
:100C180008B5024B1B685B68019308BDA001060874
:100C280008B5024B1B689B68019308BDA001060824
:100C380008B5024B1B68DB6A019308BDA0010608D2
:100C480010B5029C401AE41A6043521A90FBF2F065
:100C5800184410BD0021FFF79BBF30B5044689B08A
:100C6800684600F00CFAA3680BB900F0CDFC6946A1
:100C780004A8E56800F0B1F904A92046A84704468D
:100C880004A800F0BAF9684600F0B7F9204609B0A0
:100C980030BDF0B507460E46154685B010242246ED
:100CA8006846002100F047FD22466846002100F012
:100CB80042FD002069460246ADF8004002970396BF
:100CC8000195FFF77DFF05B0F0BD10B50446FFF7AD
:100CD8003DFEFFF743FE204610BD7047F8B50646B7
:100CE80015460C468F18BC4206D0336830469B68C0
:100CF80014F8011B9847F6E72846F8BD007C002247
:100D0800FFF784BE007C0021FFF788BE007C00212D
:100D1800FFF78CBE007C0021FFF790BE007C00210D
:100D2800FFF794BE10B50446FFF7AEF9204610BD94
:100D380010B504464FF47A728260054A0023436076
:100D48000260017408461946FFF790FE204610BD60
:100D5800A0190A08007C0021FFF780BEFFF736BE05
:100D6800704710B50446FFF78FF9204610BDF8B557
:100D78000F4600F10806051D002416F8011D384627
:100D88000A2200F094F8AE42044407D0002CF4D0B4
:100D980038462E2100F046F80444EEE72046F8BD18
:100DA80010B59DF8084044EA032343EA024242EAA8
:100DB800016104234160037510BD000037B5044686
:100DC800044D05609DF818500095FFF7E9FF20468F
:100DD80003B030BDC8190A08F8B506460D468F1885
:100DE8000024BD420CD0336830469B6815F8011BBF
:100DF8009847002801DB0444F3E7002C08BF0446A9
:100E08002046F8BD70B505460C46084649B100F0C5
:100E1800ACFC2B68024621462846BDE87040DB68DA
:100E2800184770BD03689B68184738B50D210546FB
:100E3800FFF7F8FF0A2104462846FFF7F3FF20448E
:100E480038BD38B50546FFF7DDFF04462846FFF7ED
:100E5800ECFF204438BD012A98BF0A2230B50B4662
:100E68008BB000218DF824100DF12304B3FBF2F5AB
:100E780005FB1233DBB2092B94BF30333733DBB2B7
:100E8800214604F801392B46002DEFD1FFF7BAFFB0
:100E98000BB030BD10B52AB9BDE810400368C9B21F
:100EA8009B681847D2B2BDE81040FFF7D4BFFFF7E0
:100EB800F1BF0246008803B201330AD053889288F2
:100EC800994203D391420B4628BF13461946FFF7B0
:100ED800E7BD704737B504460846B4F90610B4F9BB
:100EE8000820884203DB9042A8BF104600E008466D
:100EF800A58863880095FFF7A3FEE16801442046B2
:100F080089B203B0BDE83040FFF7D3BF4FF6FF7397
:100F1800B42202814FF408720380428000234FF408
:100F28001662C3808280C360704710B50446FFF71D
:100F3800EDFF204610BD10B50446008803B201330A
:100F480006D0FFF7A5FD2046FFF7E0FF012010BD02
:100F5800002010BD2DE9F04104460D460846022147
:100F680090461F46FFF70AFD022801D0002619E027
:100F7800284600F0EDF906460028F7D0B4F900300D
:100F8800013302D02046FFF7D6FFBDF9183025807F
:100F9800E380BDF91C30A4F80280A780238128468D
:100FA800FFF76EFD3046BDE8F081704710B5044686
:100FB800FFF76AF8204610BD10B50446044B0171CE
:100FC80003600846FFF774FD0023A360204610BDA8
:100FD800E0190A080079FFF773BD00230360436036
:100FE8008360037310B50C6804604C6844608C68B7
:100FF80084600B604B608B6010BD10B504460068C0
:10100800FFF706FE204610BD10B50446006808B17B
:10101800FFF7FEFD00232360A360636010BD38B5B1
:1010280004460D4600680131FFF7FAFD10B184E867
:101038002100012038BD10B50368044613B1436888
:101048008B4207D22046FFF7EAFF20B1A3680BB90D
:1010580022681370012010BD70B50E461146044673
:101068001546FFF7E8FF18B92046FFF7CDFF04E063
:10107800A5602068314600F070FB204670BD38B589
:101088000023044603604360836003730D4639B14F
:10109800084600F06AFB294602462046FFF7DCFFB7
:1010A800204638BD38B505460C4641B1084600F023
:1010B8005CFB214602462846FFF7CEFF01E0FFF71A
:1010C800A3FF284638BD10B5044600238AB0036044
:1010D800436083600373084601A900F0FBF82046CB
:1010E80001A9FFF7DFFF20460AB010BD70B504461E
:1010F80083680E4609B9002070BD62B1D51829462B
:10110800FFF799FF0028F6D02068A36831461844F5
:1011180000F023FBA560012070BD0B4610B59A684E
:1011280009680446FFF7E2FF10B92046FFF76CFF95
:10113800204610BD2DE9F0411C469A4288BF13464F
:101148000E46154688BF25460D4988BF1C460746EA
:10115800FFF795FFB1688D420FD88C4228BF0C4627
:101168003368002213F804801A5531683846294438
:10117800FFF798FF336803F804803846BDE8F0812C
:1011880038190A08006808B100F0A4BA70470020AE
:10119800FFF7F6BC024B1A68024B1A60704700BF93
:1011A80000030020D00300207047007CFFF7C0BC7C
:1011B800007CFFF7CDBC007CFFF7C2BC007CFFF7CA
:1011C800CFBC007CFFF7ACBC10B50446FEF75CFF53
:1011D800204610BD10B50446002060604FF47A70B8
:1011E800A060054821742060084611461A46FFF79A
:1011F8008FFC204610BD00BF201A0A08007CFFF7AC
:10120800B7BC000010B5074C00212046064A074B22
:10121800FFF7E0FF2046BDE810400549054A00F009
:101228008BB900BFD40300202A040020E803002063
:10123800B1110A086C030020704770470020FFF7BF
:1012480057BC0120FFF754BC08B5FFF749FC08BD9F
:1012580008B50846FFF754FC012008BD10B5044640
:10126800FEF712FF204610BD002242604FF47A724A
:101278008260014A02607047481A0A080846FFF768
:1012880027BC000010B5054C2046FFF7EDFF2046AF
:10129800BDE810400249034A00F04EB96C04002032
:1012A80043120A086C0300207047002001460246DA
:1012B800FFF79EBC0348044B0449054A036000F04D
:1012C8003BB900BF7C040020701A0A08B1120A0852
:1012D8006C0300202DE9F0411546023A232A28BF65
:1012E8000A258CB000220A2D03460C468DF82C20C6
:1012F80007D1904205DA2D2201F101080A70434214
:1013080001E0ABB1A0460DF12B07012619462A468C
:1013180001A800F0F1F9029A0136092ACCBF372357
:101328003023134407F80139019B002BEED106E066
:10133800A04630238DF82B300DF12A0702264046AF
:10134800791C324600F0ECF920460CB0BDE8F0817B
:1013580010B504460E48FFF73DFE28B1A4F10D0371
:10136800022B01D8002010BD0A48FFF7F3FC08B192
:10137800012CF7D90848FFF741FF30B1A4F112005A
:10138800012894BF0020012010BD012010BD00BF1E
:10139800B004002084040020D4030020172838B5A6
:1013A80005460C460AD8FF2908D0FFF7D1FF28B117
:1013B80028462146BDE83840FFF7E8BA38BD38B5B9
:1013C80004460D46FFF7EAFAFF2810D078B1831ECD
:1013D800DBB2012B0BD9062809D02046FFF7B8FF4E
:1013E80028B120462946BDE83840FFF7DFBA38BDA6
:1013F80010B50446FFF7D2FA0438C0B2012808D95C
:101408002046FFF7A5FF20B12046BDE81040FFF7B2
:10141800D5BA002010BD10B5044609289CBF0A346F
:10142800A4B22046FFF794FF50B120460321FFF7EE
:10143800A5FA032804D12046BDE81040FFF7D6BA24
:10144800002010BD38B504460D46FFF781FFE8B10E
:1014580020460421FFF792FA0428204604D12946A1
:10146800BDE83840FFF7BABA0221FFF787FA022829
:101478000CD12046FFF792FA012801D0042805D1A3
:101488002046E9B2BDE83840FFF7B8BA38BD0000D9
:101498000148FFF71ABC00BF8004002010B5064CB5
:1014A80000212046FFF744FC2046BDE810400349D0
:1014B800034A00F041B800BF84040020E30C0A0886
:1014C8006C03002013B5084C002100910A460B4616
:1014D8002046FFF773FC20460449054A02B0BDE8E0
:1014E800104000F029B800BF98040020690D0A08D0
:1014F8006C03002070B50C4E0C4D0D4C304600218D
:10150800FFF75AFD30460B4E2246294600F014F8E4
:1015180030460121FFF750FD304629462246BDE8F6
:10152800704000F009B800BFB0040020B30F0A08EB
:101538006C030020BC04002003460846194600F04E
:10154800CDB80000244B1A68D0075CBF01221A608E
:10155800224B1A68D1075CBF01221A60204B1A6817
:10156800D2075CBF01221A601E4B1A68D0075CBF05
:1015780001221A601C4B1A68D1075CBF01221A604D
:101588001A4B1A68D2075CBF01221A60184B1A68F6
:10159800D0075CBF01221A60164B1A68D1075CBFDE
:1015A80001221A60144B1A68D2075CBF01221A6024
:1015B800124B1A68D0075CBF01221A60104B1A68D8
:1015C800D1075CBF01221A600E4B1A68D2075CBFB4
:1015D80001221A60704700BFF4040020F0040020C4
:1015E800EC040020E8040020E4040020E0040020CB
:1015F800DC040020D8040020D4040020D0040020FB
:10160800CC040020C804002008B5FFF711FB000037
:10161800244B1A68D0075CBF01221A60224B1A6853
:10162800D1075CBF01221A60204B1A68D2075CBF41
:1016380001221A601E4B1A68D0075CBF01221A608B
:101648001C4B1A68D1075CBF01221A601A4B1A6832
:10165800D2075CBF01221A60184B1A68D0075CBF1A
:1016680001221A60164B1A68D1075CBF01221A6062
:10167800144B1A68D2075CBF01221A60124B1A6811
:10168800D0075CBF01221A60104B1A68D1075CBFF3
:1016980001221A600E4B1A68D2075CBF01221A6039
:1016A800704700BF24050020200500201C050020ED
:1016B8001805002014050020100500200C05002046
:1016C800080500200405002000050020FC04002077
:1016D800F804002000210A2200F0D6B838B50546E3
:1016E80004480C46134620B1022029462246AFF38F
:1016F800008038BD0000000010B591FBF2F400290D
:1017080002FB141304DB002B07DA01349B1A04E0F4
:10171800002BC4BF04F1FF349B180460436010BD64
:1017280010B5431E0A44914204D011F8014B03F846
:10173800014FF8E710BD03460244934202D003F874
:10174800011BFAE7704710F8012B11F8013B012A39
:1017580028BF9A42F7D0D01A7047034611F8012BD8
:1017680003F8012B002AF9D17047034613F8012B1F
:10177800002AFBD1181A0138704700002DE9F047FC
:101788000F46404CD4F800903D4615F801EB09EBA4
:101798000E04667806F0080404F0FF060CB12F4624
:1017A800F2E774462D2C03D1BD1C7C78012603E09A
:1017B8002B2C04BF7C78BD1C13B1102B0AD15AE026
:1017C800302C56D12C7804F0DF04582C4CD16C788E
:1017D80010230235002E14BF4FF000486FF0004868
:1017E800B8FBF3FA0027BE4603FB1A8809EB040C82
:1017F8009CF801C01CF0040F01D0303C0BE01CF039
:10180800030C1BD0BCF1010F0CBF4FF0370C4FF08D
:10181800570CCCEB04049C4210DAB7F1FF3F0AD016
:10182800D64506D801D1444503DC03FB0E4E0127FB
:1018380001E04FF0FF3715F8014BD7E77C1C7346E2
:101848000AD1002E4FF0220114BF4FF000436FF071
:10185800004301602AB911E00EB1CEF100036AB16C
:1018680007B1691E116009E03024002BB2D10823AA
:10187800B0E70A23AEE7302CACD1A3E71846BDE8A1
:10188800F08700BF0403002030B505460C46134618
:10189800034A294610682246BDE83040FFF76EBF6C
:1018A8006803002045000A081D000A0885000A0888
:1018B80089000A0800000000746F67676C65576547
:1018C8006D6F0073796E63536572766F730052475C
:1018D8004200427574746F6E20707265737365642C
:1018E80021004E4F49534521004F726967696E6167
:1018F8006C20537472696E673A005245443A004747
:101908005245454E3A00424C55453A0072656400CE
:10191800626C756500677265656E00323030004F25
:10192800726967696E616C20537472696E673A20D8
:10193800004E65636B3A200052696768743A20006C
:101948004C6566743A20006E65636B00726967685F
:101958007441726D006C65667441726D00627269E3
:101968006768746E657373006E6F697365006D6F79
:101978007665536572766F73006D6F6F646C696717
:1019880068747300656E61626C65536C617665009E
:101998000000000000000000E30C0A082D0D0A08F2
:1019A800050D0A08E50C0A080D0D0A08150D0A08A8
:1019B8001D0D0A08250D0A0800000000000000009F
:1019C800770D0A08690D0A086B0D0A080000000067
:1019D8000000000000000000B30F0A08B50F0A0855
:1019E8005A00252B3033643A253032750025592D9D
:1019F800256D2D25645425483A254D3A2553257AD9
:101A08000061736374696D650000000000000000E8
:101A18000000000000000000B1110A08D1110A08F6
:101A2800CB110A08E10D0A08B3110A08BF110A0808
:101A3800B9110A08C5110A080000000000000000DA
:101A480043120A0865120A0859120A08E10D0A0821
:101A580051120A0845120A084B120A0841120A08CC
:101A68000000000000000000B3120A080000000097
:101A78000020202020202020202028282828282056
:101A8800202020202020202020202020202020204E
:101A980020881010101010101010101010101010B6
:101AA80010040404040404040404041010101010A6
:101AB8001010414141414141010101010101010170
:101AC80001010101010101010101010110101010C2
:101AD8001010424242424242020202020202020242
:101AE8000202020202020202020202021010101096
:101AF80020000000000000000000000000000000BE
:101B080000000000000000000000000000000000CD
:101B180000000000000000000000000000000000BD
:101B280000000000000000000000000000000000AD
:101B3800000000000000000000000000000000009D
:101B4800000000000000000000000000000000008D
:101B5800000000000000000000000000000000007D
:101B6800000000000000000000000000000000006D
:101B780000430000A9010A0825090A0897110A0864
:101B88009D110A080D120A088D120A08BD120A08CA
:101B980099140A08A5140A08CD140A08FD140A089D
:081BA8004D150A0819160A0880
:101BB000091A0A08781A0A0800000000000000004C
:101BC0000000000000000000000000000000000015
:101BD0000000000000000000791B0A08000000005F
:101BE00000000000000000000000000000000000F5
:101BF00000000000000000000000000000000000E5
:101C000000000000000000000000000000000000D4
:0C1C10000000000000000000080300209D
:101C1C00FFFFFFFF00000102030405060708090A85
:101C2C000B0C0D0E0F101112131415161718191A80
:081C3C001B1C1D1E1F202800C7
:041C44007856341288
:04000005080A0018CD
:00000001FF
