:02000004080AE8
:1000000000000A08B41B0A080000030006000501EE
:080010000402060000000000DC
:1000180034180A08074B70B51E46074C0025E41A29
:10002800A408A54204D056F8253098470135F8E7CA
:1000380070BD00BFE81A0A081C1B0A0809480A49CB
:1000480008B5884205D0094A824202D0121A01F046
:100058002BFB0748074A0021121A01F030FB06481B
:1000680008BD00BF00030020201B0A086C03002005
:100078006C030020200500202005002000F0F0BBC4
:1000880000F012BC00F082BD00F088BD90F820207E
:10009800012322B1002280F820201846704780F8FA
:1000A800203002207047000030B50C4695B0054658
:1000B80000226846032301F0F7F804A82146042229
:1000C800072301F0F1F808220B23214608A801F0C4
:1000D800EBF8684601F010F981B2032000F00FFE3A
:1000E800684601F009F9286104A801F005F981B210
:1000F800112000F004FE04A801F0FEF8686108A8C9
:1001080001F0FAF881B2132000F0F9FD08A801F017
:10011800F3F83749A86110A801F06AF8214610A839
:1001280001F0B4F80346334C1968204600F0FCFE91
:1001380010A801F01BF8304910A801F059F86846DA
:1001480001F0DAF80A2201460CA801F075F80CA9AA
:1001580010A801F09BF803462046196800F0E4FE59
:100168000CA801F003F810A801F000F8234910A822
:1001780001F03EF804A801F0BFF80A2201460CA8D5
:1001880001F05AF80CA910A801F080F8034620469F
:10019800196800F0C9FE0CA800F0E8FF10A800F0EC
:1001A800E5FF174910A801F023F808A801F0A4F802
:1001B8000A2201460CA801F03FF80CA910A801F08A
:1001C80065F803462046196800F0AEFE0CA800F05A
:1001D800CDFF10A800F0CAFF08A800F0C7FF04A8C8
:1001E80000F0C4FF684600F0C1FF012015B030BD23
:1001F80048180A08AC04002059180A085E180A08AA
:1002080065180A08022A38B5044605D0032A0FD013
:10021800012A10D10B6809E00C200D68FFF732FFA6
:10022800034618B195E8070083E80700236002E059
:100238000068FFF729FF002038BD000070B58B6803
:1002480006460C46B3B11020FFF71CFF054688B1DF
:1002580000238360A36833B1214602229847E368EC
:10026800EB60A368AB6029463246BDE8704002489F
:1002780000F0C8BC002070BDD50B0A0830B5026874
:1002880085B05368946813F0010F4FEA630315684B
:1002980018BFE25868461C4418BF555900F056FF6D
:1002A80069462046A8470446684600F05FFF204696
:1002B80005B030BD10B58368044613B1014603226A
:1002C8009847204610BD002300F038BC0022026089
:1002D80042608260026142618261C26180F82020CE
:1002E800704738B50446FF21032000F008FDFF23BE
:1002F800002523611320002100F001FDA5611120D4
:10030800294600F0FCFC656138BD38B50546002477
:100318000320002100F0F3FC1320FF212C6100F0E2
:10032800EEFCAC611120214600F0E9FC6C6138BD9F
:1003380038B5044600250320002100F0E0FC132016
:100348002946256100F0DBFCA5611120FF2100F0A2
:10035800D6FCFF23636138BD38B5054C05462046F9
:1003680000F02BFE204600F04CFE2860012038BD2E
:100378007003002038B5054C0546204600F01DFEE8
:10038800204600F03EFE6860012038BD840300204E
:1003980038B5054C0546204600F00FFE204600F013
:1003A80030FEA860012038BD9403002030B50C460B
:1003B80095B0002203230546684600F075FF04A89F
:1003C80021460422072300F06FFF08A821460822CF
:1003D8000B2300F069FF684600F08EFFC82806D09E
:1003E800684600F089FF01462846FFF7B5FF04A8D4
:1003F80000F082FFC82806D004A800F07DFF01465F
:100408002846FFF7B7FF08A800F076FFC82806D0EF
:1004180008A800F071FF01462846FFF7B9FF10A8A9
:10042800354900F0E5FE214610A800F02FFF0346ED
:100438003248196800F078FD10A800F097FE30499E
:1004480010A800F0D5FE684600F056FF0A220146C3
:100458000CA800F0F1FE0CA910A800F017FF034645
:100468002648196800F060FD0CA800F07FFE10A86F
:1004780000F07CFE234910A800F0BAFE04A800F0A2
:100488003BFF0A2201460CA800F0D6FE0CA910A8D2
:1004980000F0FCFE03461948196800F045FD0CA859
:1004A80000F064FE10A800F061FE174910A800F0E3
:1004B8009FFE08A800F020FF0A2201460CA800F0C1
:1004C800BBFE0CA910A800F0E1FE03460B48196812
:1004D80000F02AFD0CA800F049FE10A800F046FE26
:1004E80008A800F043FE04A800F040FE684600F0AB
:1004F8003DFE012015B030BD8D180A08AC0400205F
:100508009F180A08A6180A08AE180A08F0B590F845
:10051800203091B00446002B61D01146684600F0A7
:1005280067FE04A869460022032300F0BDFE08A860
:1005380069460322062300F0B7FE0CA86946062286
:10054800092300F0B1FE04A800F0D6FE002840DB25
:1005580004A800F0D1FEB4283BDC012608A800F06E
:10056800CBFE002837DB08A800F0C6FEB42832DC32
:1005780001270CA800F0C0FE00282EDB0CA800F014
:10058800BBFEB42829DC012536B104A800F0B4FE6E
:1005980001462046FFF7E0FE37B108A800F0ACFEA0
:1005A80001462046FFF7E6FE35B10CA800F0A4FE90
:1005B80001462046FFF7ECFE0CA800F0D7FD08A87E
:1005C80000F0D4FD04A800F0D1FD684600F0CEFD8F
:1005D80005E00026C2E70027CBE70025D4E711B0E5
:1005E800F0BD000038B590F8203004461546CBB170
:1005F80010460D4901F06BF810B92046FFF771FE5F
:1006080028460A4901F063F810B92046FFF77DFE35
:100618002846074901F05BF820B92046BDE8384074
:10062800FFF786BE38BD00BF6B180A086F180A08A6
:1006380074180A0810B504460A2000F049FBE06067
:10064800064800F0DEFC2060054800F0DAFC606037
:10065800044800F0D6FCA06010BD00BF7003002065
:10066800840300209403002038B5002383600446E7
:100678000C200D46FFF706FD034628B195E8030058
:1006880083E80300AA689A602360034B2046E3606E
:10069800024BA36038BD00BF85020A080D020A0894
:1006A80070B5054690B00024B42621468DE8500068
:1006B8004FF408724FF41663404800F0E1FC8DE8EF
:1006C800500001214FF408724FF416633C4800F0C3
:1006D800D7FC4FF416634FF408728DE850000221DE
:1006E800384800F0CDFC2146072000F0CDFA21461D
:1006F800062000F0C9FA21460A2000F0C5FA214672
:100708000D2000F0C1FA0320012100F0BDFA1320EA
:10071800012100F0B9FA1120012100F0B5FA1220E8
:10072800012100F0B1FA294602222748FFF7CBFD44
:10073800291D02222548FFF7C6FD05F108010222FE
:100748002348FFF7C0FD022205F10C012148FFF7FD
:10075800BAFD214B03A90CA8039304940595FFF750
:1007680083FF0CA91D48FFF769FD0CA8FFF7A2FD40
:100778001B4B06A90CA8069307940895FFF774FF6E
:100788000CA91848FFF75AFD0CA8FFF793FD164B64
:1007980009A90CA809930A940B95FFF765FF0CA902
:1007A8001248FFF74BFD0CA8FFF784FD10484FF4E3
:1007B800165100F01DFE10B070BD00BF840300206C
:1007C8009403002070030020B5180A08BA180A0814
:1007D800C3180A08CB180A08B5030A08D6180A0865
:1007E800B1000A08E1180A0895000A08EC180A0876
:1007F800AC04002008B500F087F8064B18600648DE
:1008080000F029FC054800F026FCBDE80840044833
:1008180000F021BC80030020840300209403002002
:100828007003002003460A4601481946FFF76EBECA
:10083800A403002003460A4601481946FFF7D2BE22
:10084800A403002007B5002100913C22012303489E
:1008580000F084F903B05DF804FB00BFF8180A083B
:1008680013B500240B48FFF71BFF00F0D7FA224608
:100878002346009401940849084800F077F9009449
:100888000194074922462346064800F06FF902B052
:1008980010BD00BFA40300202D080A0882180A080A
:1008A8003D080A087A180A0808B50C2000F0FDF976
:1008B800012804D1FFF7C6FFFA2000F04FFABDE87F
:1008C80008400148FFF7B6BEA403002008B500F0B1
:1008D8001BF8034B1860BDE808400248FFF7F6BC58
:1008E800C8030020A403002008B5024B1B689B6ABC
:1008F800019308BD9C01060808B5024B1B685B6B99
:10090800019308BD9C01060808B5024B1B681B68CB
:10091800019308BDB001060808B5024B1B685B6867
:10092800019308BDB001060808B5024B1B689B6817
:10093800019308BDB001060808B5024B1B68DB68C7
:10094800019308BDB001060808B5024B1B685B6936
:10095800019308BDB001060808B5024B1B681B6A65
:10096800019308BDB001060808B5024B1B689B6AD5
:10097800019308BDB001060808B5024B1B681B6B44
:10098800019308BDB001060808B5024B1B685B6BF4
:10099800019308BDB001060808B5024B1B681B6E21
:1009A800019308BDAC01060808B5024B1B685B6ED5
:1009B800019308BDAC01060808B5024B1B689B6E85
:1009C800019308BDAC01060808B5024B1B68DB6E35
:1009D800019308BDAC01060808B5024B1B681B6FE4
:1009E800019308BDAC01060808B5024B1B685B6F94
:1009F800019308BDAC01060808B5034B1B68D3F882
:100A08008030019308BD0000AC01060808B5024B10
:100A18001B681B69019308BDA801060808B5024BAD
:100A28001B685B69019308BDA801060808B5024B5D
:100A38001B689B69019308BDA801060808B5024B0D
:100A48001B68DB69019308BDA801060808B5024BBD
:100A58001B68DB69019308BDB401060808B5024BA1
:100A68001B681B6A019308BDB401060808B5024B50
:100A78001B681B68019308BDC401060808B5024B32
:100A88001B685B68019308BDC401060808B5024BE2
:100A98001B689B68019308BDC401060808B5024B92
:100AA8001B68DB68019308BDC401060808B5024B42
:100AB8001B689B69019308BDC401060808B5024B71
:100AC8001B685B6A019308BDC401060808B5024BA0
:100AD8001B689B6A019308BDC401060808B5024B50
:100AE8001B68DB6A019308BDC401060808B5024B00
:100AF8001B681B6B019308BDC401060808B5024BAF
:100B08001B685B6B019308BDC401060808B5024B5E
:100B18001B689B6B019308BDC401060808B5024B0E
:100B28001B685B68019308BDA401060808B5024B61
:100B38001B685B69019308BDA401060808B5024B50
:100B48001B681B68019308BDCC01060808B5024B59
:100B58001B685B68019308BDCC01060808B5024B09
:100B68001B681B6A019308BDCC01060808B5024B37
:100B78001B685B6A019308BDCC01060808B5024BE7
:100B88001B681B69019308BDC801060808B5024B1C
:100B98001B681B68019308BDA001060808B5024B35
:100BA8001B685B68019308BDA001060808B5024BE5
:100BB8001B689B68019308BDA001060808B5024B95
:100BC8001B68DB6A019308BDA001060830B504461E
:100BD80089B0684600F00CFBA3680BB900F077FCFD
:100BE800694604A8E56800F0B1FA04A92046A847B8
:100BF800044604A800F0BAFA684600F0B7FA20469E
:100C080009B030BDF0B507460E46154685B010242C
:100C180022466846002100F052FD2246684600211F
:100C280000F04DFD002069460246ADF800400297ED
:100C380003960195FFF78AFF05B0F0BD10B504468D
:100C48000E4800F05DFA28B1A4F10D03022B01D87B
:100C5800002010BD0A4800F0C9F808B1012CF7D9E6
:100C6800084800F085FB30B1A4F11200012894BFB8
:100C78000020012010BD012010BD00BFF803002096
:100C8800CC03002014040020172838B505460C466C
:100C98000AD8FF2908D0FFF7D1FF28B128462146F6
:100CA800BDE83840FFF740BE38BD10B50446FFF731
:100CB80043FE0438C0B2012808D92046FFF7BEFF1A
:100CC80020B12046BDE81040FFF73EBE002010BD11
:100CD80010B5044609289CBF0A34A4B22046FFF781
:100CE800ADFF50B120460321FFF716FE032804D1BB
:100CF8002046BDE81040FFF73FBE002010BD38B5C4
:100D080004460D46FFF79AFFE8B120460421FFF795
:100D180003FE0428204604D12946BDE83840FFF7E1
:100D280023BE0221FFF7F8FD02280CD12046FFF769
:100D380003FE012801D0042805D12046E9B2BDE808
:100D48003840FFF721BE38BD10B5029C401AE41A9E
:100D58006043521A90FBF2F0184410BD0021FFF7CF
:100D6800E5BE08B5FFF7C0FDBDE80840FFF7C4BD04
:100D78007047F8B5064615460C468F18BC4206D093
:100D8800336830469B6814F8011B9847F6E72846F5
:100D9800F8BD007C0022FFF7FFBD007C0021FFF7B3
:100DA80003BE007C0021FFF707BE007C0021FFF78F
:100DB8000BBE007C0021FFF70FBE10B50446FFF7FD
:100DC80063F9204610BD000010B504464FF47A724E
:100DD8008260054A00234360026001740846194690
:100DE800FFF70AFE204610BD10190A08007C0021F2
:100DF800FFF7FABD10B5064C00212046FFF7E4FFC7
:100E08002046BDE810400349034A00F05BBB00BF21
:100E1800CC030020790D0A086C030020FFF79CBD65
:100E2800704710B50446FFF72FF9204610BDF8B5F6
:100E38000F4600F10806051D002416F8011D384666
:100E48000A2200F0A7F8AE42044407D0002CF4D0E0
:100E580038462E2100F059F80444EEE72046F8BD44
:100E680010B59DF8084044EA032343EA024242EAE7
:100E7800016104234160037510BD000037B50446C5
:100E8800044D05609DF818500095FFF7E9FF2046CE
:100E980003B030BD38190A0813B5084C0021009179
:100EA8000A460B462046FFF7E9FF20460449054A53
:100EB80002B0BDE8104000F005BB00BFE003002011
:100EC800290E0A086C030020F8B506460C468F1850
:100ED8000025BC4207D0336830469B6814F8011BD4
:100EE80098470544F5E72846F8BD70B505460C4611
:100EF800084649B100F0FDFB2B680246214628460A
:100F0800BDE87040DB68184770BD03689B681847E8
:100F180038B50D210546FFF7F8FF0A210446284693
:100F2800FFF7F3FF204438BD38B50546FFF7DDFF6E
:100F380004462846FFF7ECFF204438BD012A98BF35
:100F48000A2230B50B468BB000218DF824100DF124
:100F58002304B3FBF2F505FB1233DBB2092B94BF74
:100F680030333733DBB2214604F801392B46002DE4
:100F7800EFD1FFF7BAFF0BB030BD10B52AB9BDE805
:100F880010400368C9B29B681847D2B2BDE8104048
:100F9800FFF7D4BFFFF7F1BF0246008803B2013361
:100FA8000AD053889288994203D391420B4628BFAE
:100FB80013461946FFF73ABD704737B50446084649
:100FC800B4F90610B4F90820884203DB9042A8BFA0
:100FD800104600E00846A58863880095FFF7B4FE30
:100FE800E1680144204689B203B0BDE83040FFF70C
:100FF800D3BF008803B2013301D0FFF71FBD002023
:10100800704773B50446FFF7F4FFE568B4F9086064
:10101800B4F906306188A2880096401BFFF794FE59
:1010280003B2B4F90600834204D0B4F9080083423D
:1010380018BF581C02B070BD4FF6FF73B42202816E
:101048004FF408720380428000234FF41662C38075
:101058008280C360704710B50446FFF7EDFF204655
:1010680010BD10B50446008803B2013306D0FFF75F
:10107800D5FC2046FFF7E0FF012010BD002010BD81
:101088002DE9F04104460D460846022190461F46C8
:10109800FFF742FC022801D0002619E02846FFF796
:1010A800CDFD06460028F7D0B4F90030013302D050
:1010B8002046FFF7D6FFBDF918302580E380BDF93B
:1010C8001C30A4F80280A78023812846FFF79EFCE5
:1010D8003046BDE8F081704710B50446FEF7D4FFEE
:1010E800204610BD10B50446044B01710360084644
:1010F800FFF7ACFC0023A360204610BD50190A0876
:101108000079FFF7ABBC000070B50C4E0C4D0D4CD0
:1011180030460021FFF7E6FF30460B4E22462946AF
:1011280000F0D0F930460121FFF7DCFF30462946B0
:101138002246BDE8704000F0C5B900BFF8030020A2
:10114800DF100A086C030020040400200023036059
:1011580043608360037310B50C6804604C68446096
:101168008C6884600B604B608B6010BD10B50446C2
:101178000068FFF713FD204610BD10B5044600684F
:1011880008B1FFF70BFD00232360A360636010BD67
:1011980038B504460D4600680131FFF707FD10B168
:1011A80084E82100012038BD10B50368044613B156
:1011B80043688B4207D22046FFF7EAFF20B1A368B5
:1011C8000BB922681370012010BD70B50E46114688
:1011D80004461546FFF7E8FF18B92046FFF7CDFF8C
:1011E80004E0A5602068314600F07BFA204670BD17
:1011F80038B50023044603604360836003730D46DB
:1012080039B1084600F075FA294602462046FFF72C
:10121800DCFF204638BD38B505460C4641B10846C6
:1012280000F067FA214602462846FFF7CEFF01E0A4
:10123800FFF7A3FF284638BD10B5044600238AB03F
:101248000360436083600373084601A900F0FCF85B
:10125800204601A9FFF7DFFF20460AB010BD70B590
:10126800044683680E4609B9002070BD62B1D518DE
:101278002946FFF799FF0028F6D02068A368314671
:10128800184400F02EFAA560012070BD0B4610B579
:101298009A6809680446FFF7E2FF10B92046FFF78D
:1012A8006CFF204610BD00002DE9F0411C469A4213
:1012B80088BF13460E46154688BF25460D4988BF88
:1012C8001C460746FFF794FFB1688D420FD88C4241
:1012D80028BF0C463368002213F804801A55316879
:1012E80038462944FFF797FF336803F804803846E7
:1012F800BDE8F0819E180A08006808B100F0AEB990
:1013080070470020FFF70ABC024B1A68024B1A60AC
:10131800704700BF00030020100400207047007CC5
:10132800FFF7D4BB007CFFF7E1BB007CFFF7D6BB1F
:10133800007CFFF7E3BB007CFFF7C0BB10B5044699
:10134800FEF7A2FE204610BD10B5044600206060DE
:101358004FF47A70A0600548217420600846114651
:101368001A46FFF7A3FB204610BD00BF90190A08D4
:10137800007CFFF7CBBB000010B5074C00212046CE
:10138800064A074BFFF7E0FF2046BDE81040054935
:10139800054A00F097B800BF140400206A04002032
:1013A8002804002025130A086C03002070477047A2
:1013B8000020FFF76BBB0120FFF768BB08B5FFF7FC
:1013C8005DFB08BD08B50846FFF768FB012008BDAE
:1013D80010B50446FEF758FE204610BD00224260B4
:1013E8004FF47A728260014A02607047B8190A089D
:1013F8000846FFF73BBB000010B5054C2046FFF739
:10140800EDFF2046BDE810400249034A00F05AB8F3
:10141800AC040020B7130A086C03002070470020B2
:1014280001460246FFF7AABB0348044B0449054A94
:10143800036000F047B800BFBC040020E0190A08A8
:1014480025140A086C0300202DE9F0411546023ADC
:10145800232A28BF0A258CB000220A2D03460C46F1
:101468008DF82C2007D1904205DA2D2201F10108D0
:101478000A70434201E0ABB1A0460DF12B070126EB
:1014880019462A4601A800F0FBF8029A0136092AF3
:10149800CCBF37233023134407F80139019B002BB5
:1014A800EED106E0A04630238DF82B300DF12A0747
:1014B80002264046791C324600F0F6F820460CB069
:1014C800BDE8F08103460846194600F0CBB808B5D8
:1014D800FFF774FB244B1A68D0075CBF01221A601F
:1014E800224B1A68D1075CBF01221A60204B1A6888
:1014F800D2075CBF01221A601E4B1A68D0075CBF76
:1015080001221A601C4B1A68D1075CBF01221A60BD
:101518001A4B1A68D2075CBF01221A60184B1A6866
:10152800D0075CBF01221A60164B1A68D1075CBF4E
:1015380001221A60144B1A68D2075CBF01221A6094
:10154800124B1A68D0075CBF01221A60104B1A6848
:10155800D1075CBF01221A600E4B1A68D2075CBF24
:1015680001221A60704700BFEC040020E804002044
:10157800E4040020E0040020DC040020D80400205B
:10158800D4040020D0040020CC040020C80400208B
:10159800C4040020C0040020244B1A68D0075CBF94
:1015A80001221A60224B1A68D1075CBF01221A6017
:1015B800204B1A68D2075CBF01221A601E4B1A68BA
:1015C800D0075CBF01221A601C4B1A68D1075CBFA8
:1015D80001221A601A4B1A68D2075CBF01221A60EE
:1015E800184B1A68D0075CBF01221A60164B1A689C
:1015F800D1075CBF01221A60144B1A68D2075CBF7E
:1016080001221A60124B1A68D0075CBF01221A60C7
:10161800104B1A68D1075CBF01221A600E4B1A687A
:10162800D2075CBF01221A60704700BF1C0500206A
:101638001805002014050020100500200C050020C6
:10164800080500200405002000050020FC040020F7
:10165800F8040020F4040020F004002000210A22ED
:1016680000F0D6B838B5054604480C46134620B1F4
:10167800022029462246AFF3008038BD0000000052
:1016880010B591FBF2F4002902FB141304DB002BC4
:1016980007DA01349B1A04E0002BC4BF04F1FF34BD
:1016A8009B180460436010BD10B5431E0A44914264
:1016B80004D011F8014B03F8014FF8E710BD0346B9
:1016C8000244934202D003F8011BFAE7704710F86E
:1016D800012B11F8013B012A28BF9A42F7D0D01AF2
:1016E8007047034611F8012B03F8012B002AF9D1A2
:1016F8007047034613F8012B002AFBD1181A01384A
:10170800704700002DE9F0470F46404CD4F8009090
:101718003D4615F801EB09EB0E04667806F008045F
:1017280004F0FF060CB12F46F2E774462D2C03D1C6
:10173800BD1C7C78012603E02B2C04BF7C78BD1CE3
:1017480013B1102B0AD15AE0302C56D12C7804F062
:10175800DF04582C4CD16C7810230235002E14BFAE
:101768004FF000486FF00048B8FBF3FA0027BE4678
:1017780003FB1A8809EB040C9CF801C01CF0040F49
:1017880001D0303C0BE01CF0030C1BD0BCF1010F66
:101798000CBF4FF0370C4FF0570CCCEB04049C42B5
:1017A80010DAB7F1FF3F0AD0D64506D801D1444533
:1017B80003DC03FB0E4E012701E04FF0FF3715F85D
:1017C800014BD7E77C1C73460AD1002E4FF022014B
:1017D80014BF4FF000436FF0004301602AB911E0D5
:1017E8000EB1CEF100036AB107B1691E116009E0BC
:1017F8003024002BB2D10823B0E70A23AEE7302CFF
:10180800ACD1A3E71846BDE8F08700BF0403002069
:1018180030B505460C461346034A29461068224649
:10182800BDE83040FFF76EBF6803002045000A0896
:101838001D000A0885000A0889000A08000000003F
:101848004F726967696E616C20537472696E673A8A
:10185800005245443A00475245454E3A00424C55DD
:10186800453A0072656400626C756500677265656B
:101878006E00524742003230300073796E63536510
:1018880072766F73004F726967696E616C2053746A
:1018980072696E673A20004E65636B3A20005269A0
:1018A8006768743A20004C6566743A20006E656378
:1018B8006B00726967687441726D006C656674418B
:1018C800726D006272696768746E657373006D6F1C
:1018D8007665536572766F73006D6F6F646C6967B8
:1018E80068747300656E61626C65536C617665003F
:1018F800746F67676C6557656D6F000000000000C6
:101908000000000000000000790D0A08C30D0A0855
:101918009B0D0A087B0D0A08A30D0A08AB0D0A08DF
:10192800B30D0A08BB0D0A08000000000000000003
:10193800370E0A08290E0A082B0E0A0800000000B4
:101948000000000000000000DF100A08E1100A088B
:101958005A00252B3033643A253032750025592D2D
:10196800256D2D25645425483A254D3A2553257A69
:101978000061736374696D65000000000000000079
:10198800000000000000000025130A0845130A089B
:101998003F130A08D10E0A0827130A0833130A0846
:1019A8002D130A0839130A0800000000000000007F
:1019B800B7130A08D9130A08CD130A08D10E0A0862
:1019C800C5130A08B9130A08BF130A08B5130A0889
:1019D800000000000000000027140A080020202052
:1019E80020202020202028282828282020202020C7
:1019F8002020202020202020202020202088101097
:101A080010101010101010101010101010040404F2
:101A180004040404040404101010101010104141B0
:101A2800414141410101010101010101010101019E
:101A380001010101010101011010101010104242B2
:101A4800424242420202020202020202020202026E
:101A5800020202020202020210101010200000000E
:101A6800000000000000000000000000000000006E
:101A7800000000000000000000000000000000005E
:101A8800000000000000000000000000000000004E
:101A9800000000000000000000000000000000003E
:101AA800000000000000000000000000000000002E
:101AB800000000000000000000000000000000001E
:101AC800000000000000000000000000000000000E
:101AD80000000000000000000000000000430000BB
:101AE800FD070A08D5080A086B0D0A08FD0D0A0843
:101AF800A10E0A0811110A080B130A0811130A0883
:101B080081130A0801140A0831140A08DD140A08A6
:081B1800A1150A0800000000FD
:101B200079190A08E4190A08000000000000000002
:101B300000000000000000000000000000000000A5
:101B40000000000000000000E51A0A080000000084
:101B50000000000000000000000000000000000085
:101B60000000000000000000000000000000000075
:101B70000000000000000000000000000000000065
:0C1B80000000000000000000080300202E
:101B8C00FFFFFFFF00000102030405060708090A16
:101B9C000B0C0D0E0F101112131415161718191A11
:081BAC001B1C1D1E1F20280058
:041BB4007856341219
:04000005080A0018CD
:00000001FF
