:02000004080AE8
:1000000000000A08C41B0A080000030006000501DE
:080010000402070000000000DB
:1000180048180A08074B70B51E46074C0025E41A15
:10002800A408A54204D056F8253098470135F8E7CA
:1000380070BD00BFF81A0A082C1B0A0809480A49AB
:1000480008B5884205D0094A824202D0121A01F046
:1000580035FB0748074A0021121A01F03AFB064807
:1000680008BD00BF00030020301B0A086C030020F5
:100078006C030020240500202405002000F0EEBBBE
:1000880000F010BC00F080BD00F086BD90F8202084
:10009800012322B1002280F820201846704780F8FA
:1000A800203002207047000030B50C4695B0054658
:1000B80000226846032301F025F804A821460422FB
:1000C800072301F01FF808220B23214608A801F096
:1000D80019F8684601F03EF881B2032001F081F971
:1000E800684601F037F8286104A801F033F881B2B6
:1000F800112001F076F904A801F02CF8686108A82D
:1001080001F028F881B2132001F06BF908A801F07A
:1001180021F83749A86110A800F099FF214610A8D6
:1001280000F0E3FF0346334C1968204600F04DFE0B
:1001380010A800F04AFF304910A800F088FF684670
:1001480001F008F80A2201460CA800F0A4FF0CA947
:1001580010A800F0CAFF03462046196800F035FED3
:100168000CA800F032FF10A800F02FFF234910A8B8
:1001780000F06DFF04A800F0EDFF0A2201460CA86C
:1001880000F089FF0CA910A800F0AFFF0346204635
:10019800196800F01AFE0CA800F017FF10A800F06C
:1001A80014FF174910A800F052FF08A800F0D2FF6A
:1001B8000A2201460CA800F06EFF0CA910A800F056
:1001C80094FF03462046196800F0FFFD0CA800F0D4
:1001D800FCFE10A800F0F9FE08A800F0F6FE04A83E
:1001E80000F0F3FE684600F0F0FE012015B030BDC7
:1001F8005C180A08680400206D180A0872180A08B2
:1002080079180A080222002300F096BC022A38B5A1
:10021800044605D0032A0FD0012A10D10B6809E043
:100228000C200D68FFF72EFF034618B195E807006C
:1002380083E80700236002E00068FFF725FF00203D
:1002480038BD000070B58B6806460C46B3B1102067
:10025800FFF718FF054688B100238360A36833B110
:10026800214602229847E368EB60A368AB60294601
:100278003246BDE87040024800F0C2BC002070BDA4
:10028800D10B0A0830B5026885B05368946813F03A
:10029800010F4FEA6303156818BFE25868461C440B
:1002A80018BF555900F081FE69462046A847044604
:1002B800684600F08AFE204605B030BD10B5836858
:1002C800044613B1014603229847204610BD002278
:1002D800026042608260026142618261C26180F8AC
:1002E8002020704738B50446FF21032001F079F833
:1002F800FF23002523611320002101F072F8A56176
:100308001120294601F06DF8656138BD38B50546FC
:1003180000240320002101F064F81320FF212C6140
:1003280001F05FF8AC611120214601F05AF86C61C8
:1003380038BD38B5044600250320002101F051F8E6
:1003480013202946256101F04CF8A5611120FF21F1
:1003580001F047F8FF23636138BD000038B5054C4C
:100368000546204600F07AFD204600F09BFD2860F7
:10037800012038BD7003002038B5054C05462046DD
:1003880000F06CFD204600F08DFD6860012038BD4E
:100398008403002038B5054C0546204600F05EFD74
:1003A800204600F07FFDA860012038BD940300209E
:1003B80030B50C4695B0002203230546684600F088
:1003C800A1FE04A821460422072300F09BFE08A8EA
:1003D800214608220B2300F095FE684600F0BAFE7D
:1003E800C82806D0684600F0B5FE01462846FFF743
:1003F800B5FF04A800F0AEFEC82806D004A800F097
:10040800A9FE01462846FFF7B7FF08A800F0A2FE9C
:10041800C82806D008A800F09DFE01462846FFF728
:10042800B9FF10A8354900F012FE214610A800F0C7
:100438005CFE03463248196800F0C7FC10A800F0BB
:10044800C4FD304910A800F002FE684600F082FEA4
:100458000A2201460CA800F01EFE0CA910A800F004
:1004680044FE03462648196800F0AFFC0CA800F0CB
:10047800ACFD10A800F0A9FD234910A800F0E7FD85
:1004880004A800F067FE0A2201460CA800F003FE4B
:100498000CA910A800F029FE03461948196800F0B5
:1004A80094FC0CA800F091FD10A800F08EFD1749EF
:1004B80010A800F0CCFD08A800F04CFE0A22014666
:1004C8000CA800F0E8FD0CA910A800F00EFE0346E9
:1004D8000B48196800F079FC0CA800F076FD10A80C
:1004E80000F073FD08A800F070FD04A800F06DFD91
:1004F800684600F06AFD012015B030BDA1180A0851
:1005080068040020B3180A08BA180A08C2180A08AA
:10051800F0B590F8203091B00446002B61D0114618
:10052800684600F094FD04A869460022032300F001
:10053800E9FD08A869460322062300F0E3FD0CA89C
:1005480069460622092300F0DDFD04A800F002FE3A
:10055800002840DB04A800F0FDFDB4283BDC0126A0
:1005680008A800F0F7FD002837DB08A800F0F2FD26
:10057800B42832DC01270CA800F0ECFD00282EDBA3
:100588000CA800F0E7FDB42829DC012536B104A841
:1005980000F0E0FD01462046FFF7E0FE37B108A86D
:1005A80000F0D8FD01462046FFF7E6FE35B10CA85D
:1005B80000F0D0FD01462046FFF7ECFE0CA800F045
:1005C80004FD08A800F001FD04A800F0FEFC684640
:1005D80000F0FBFC05E00026C2E70027CBE700257A
:1005E800D4E711B0F0BD000038B590F820300446CB
:1005F8001546CBB110460D4901F073F810B92046E5
:10060800FFF770FE28460A4901F06BF810B920463A
:10061800FFF77CFE2846074901F063F820B9204619
:10062800BDE83840FFF785BE38BD00BF7F180A080F
:1006380083180A0888180A0810B504460A2000F02A
:10064800B9FEE060064800F02DFC2060054800F087
:1006580029FC6060044800F025FCA06010BD00BFC4
:1006680070030020840300209403002038B5002381
:10067800836004460C200D46FFF704FD034628B1AD
:1006880095E8030083E80300AA689A602360034B97
:100698002046E360024BA36038BD00BF8D020A0804
:1006A80015020A0870B5054690B00024B426214604
:1006B8008DE850004FF408724FF416633E4800F07E
:1006C80030FC8DE8500001214FF408724FF4166396
:1006D8003A4800F026FC4FF408724FF416638DE890
:1006E80050000221364800F01CFC2146072000F08B
:1006F8003DFE2146062000F039FE21460A2000F082
:1007080035FE21460D2000F031FE0320012100F0C6
:100718002DFE1320012100F029FE1120012100F0F7
:1007280025FE1220012100F021FE29462548FFF769
:1007380069FD291D2448FFF765FD05F108012348D7
:10074800FFF760FD05F10C012148FFF75BFD214B28
:1007580003A90CA8039304940595FFF787FF0CA938
:100768001D48FFF76FFD0CA8FFF7A8FD1B4B06A956
:100778000CA8069307940895FFF778FF0CA918486A
:10078800FFF760FD0CA8FFF799FD164B09A90CA807
:1007980009930A940B95FFF769FF0CA91248FFF714
:1007A80051FD0CA8FFF78AFD10484FF4165100F0D0
:1007B8004DFD10B070BD00BF8403002094030020DD
:1007C80070030020C9180A08CE180A08D7180A08A2
:1007D800DF180A08B9030A08EA180A08B1000A0863
:1007E800F5180A0895000A0800190A086804002084
:1007F80008B500F087F8064B1860064800F07CFB47
:10080800054800F079FBBDE80840044800F074BBD7
:10081800800300208403002094030020700300203C
:1008280003460A4601481946FFF772BEA403002092
:1008380003460A4601481946FFF7D6BEA40300201E
:1008480007B5002100913C220B46034800F084F9CB
:1008580003B05DF804FB00BF0C190A0813B50024A7
:100868000B48FFF71FFF00F03DFA2246234600948D
:1008780001940849084800F077F900940194074961
:1008880022462346064800F06FF902B010BD00BFAB
:10089800A403002029080A0896180A0839080A0833
:1008A8008E180A0808B50C2000F071FD012804D143
:1008B800FFF7C6FFFA2000F0C9F9BDE80840014873
:1008C800FFF7BABEA403002008B500F01BF8034BDD
:1008D8001860BDE808400248FFF7F9BCC8030020CB
:1008E800A403002008B5024B1B689B6A019308BD4E
:1008F8009C01060808B5024B1B685B6B019308BD99
:100908009C01060808B5024B1B681B68019308BDCB
:10091800B001060808B5024B1B685B68019308BD67
:10092800B001060808B5024B1B689B68019308BD17
:10093800B001060808B5024B1B68DB68019308BDC7
:10094800B001060808B5024B1B685B69019308BD36
:10095800B001060808B5024B1B681B6A019308BD65
:10096800B001060808B5024B1B689B6A019308BDD5
:10097800B001060808B5024B1B681B6B019308BD44
:10098800B001060808B5024B1B685B6B019308BDF4
:10099800B001060808B5024B1B681B6E019308BD21
:1009A800AC01060808B5024B1B685B6E019308BDD5
:1009B800AC01060808B5024B1B689B6E019308BD85
:1009C800AC01060808B5024B1B68DB6E019308BD35
:1009D800AC01060808B5024B1B681B6F019308BDE4
:1009E800AC01060808B5024B1B685B6F019308BD94
:1009F800AC01060808B5034B1B68D3F88030019397
:100A080008BD0000AC01060808B5024B1B681B694D
:100A1800019308BDA801060808B5024B1B685B696D
:100A2800019308BDA801060808B5024B1B689B691D
:100A3800019308BDA801060808B5024B1B68DB69CD
:100A4800019308BDA801060808B5024B1B68DB69BD
:100A5800019308BDB401060808B5024B1B681B6A60
:100A6800019308BDB401060808B5024B1B681B6852
:100A7800019308BDC401060808B5024B1B685B68F2
:100A8800019308BDC401060808B5024B1B689B68A2
:100A9800019308BDC401060808B5024B1B68DB6852
:100AA800019308BDC401060808B5024B1B689B6981
:100AB800019308BDC401060808B5024B1B685B6AB0
:100AC800019308BDC401060808B5024B1B689B6A60
:100AD800019308BDC401060808B5024B1B68DB6A10
:100AE800019308BDC401060808B5024B1B681B6BBF
:100AF800019308BDC401060808B5024B1B685B6B6F
:100B0800019308BDC401060808B5024B1B689B6B1E
:100B1800019308BDC401060808B5024B1B685B6851
:100B2800019308BDA401060808B5024B1B685B6960
:100B3800019308BDA401060808B5024B1B681B6891
:100B4800019308BDCC01060808B5024B1B685B6819
:100B5800019308BDCC01060808B5024B1B681B6A47
:100B6800019308BDCC01060808B5024B1B685B6AF7
:100B7800019308BDCC01060808B5024B1B681B6928
:100B8800019308BDC801060808B5024B1B681B681D
:100B9800019308BDA001060808B5024B1B685B68F5
:100BA800019308BDA001060808B5024B1B689B68A5
:100BB800019308BDA001060808B5024B1B68DB6A53
:100BC800019308BDA001060830B5044689B06846FF
:100BD80000F03DFAA3680BB900F0E4FC694604A8EC
:100BE800E56800F0E2F904A92046A847044604A8ED
:100BF80000F0EBF9684600F0E8F9204609B030BD8E
:100C0800F0B507460E46154685B0102422466846BC
:100C1800002100F05EFD22466846002100F059FDE3
:100C2800002069460246ADF80040029703960195F8
:100C3800FFF78AFF05B0F0BD10B5029C401AE41A10
:100C48006043521A90FBF2F0184410BD0021FFF7E0
:100C58006BBF10B50446FFF745FEFFF74BFE204675
:100C680010BD7047F8B5064615460C468F18BC42AD
:100C780006D0336830469B6814F8011B9847F6E79E
:100C88002846F8BD007C0022FFF784BE007C0021C6
:100C9800FFF788BE007C0021FFF78CBE007C002196
:100CA800FFF790BE007C0021FFF794BE10B5044604
:100CB800FFF7EAF9204610BD10B504464FF47A72E2
:100CC8008260054A002343600260017408461946A1
:100CD800FFF790FE204610BD20190A08007C00216D
:100CE800FFF780BEFFF736BE704710B50446FFF722
:100CF800CBF9204610BDF8B50F4600F10806051DD2
:100D0800002416F8011D38460A2200F094F8AE4275
:100D1800044407D0002CF4D038462E2100F046F8C1
:100D28000444EEE72046F8BD10B59DF8084044EAB3
:100D3800032343EA024242EA016104234160037546
:100D480010BD000037B50446044D05609DF81850E5
:100D58000095FFF7E9FF204603B030BD48190A089F
:100D6800F8B506460D468F180024BD420CD03368EE
:100D780030469B6815F8011B9847002801DB04449E
:100D8800F3E7002C08BF04462046F8BD70B50546B9
:100D98000C46084649B100F0B6FC2B6802462146CD
:100DA8002846BDE87040DB68184770BD03689B683B
:100DB800184738B50D210546FFF7F8FF0A21044604
:100DC8002846FFF7F3FF204438BD38B50546FFF73E
:100DD800DDFF04462846FFF7ECFF204438BD012A12
:100DE80098BF0A2230B50B468BB000218DF824102D
:100DF8000DF12304B3FBF2F505FB1233DBB2092B2B
:100E080094BF30333733DBB2214604F801392B461F
:100E1800002DEFD1FFF7BAFF0BB030BD10B52AB9DE
:100E2800BDE810400368C9B29B681847D2B2BDE854
:100E38001040FFF7D4BFFFF7F1BF0246008803B2A6
:100E480001330AD053889288994203D391420B46C2
:100E580028BF13461946FFF7E7BD704737B5044664
:100E68000846B4F90610B4F90820884203DB90421A
:100E7800A8BF104600E00846A58863880095FFF7DC
:100E8800DBFEE1680144204689B203B0BDE830408A
:100E9800FFF7D3BF008803B2013301D0FFF7CCBD01
:100EA8000020704773B50446FFF7F4FFE568B4F90E
:100EB8000860B4F906306188A2880096401BFFF7E5
:100EC800BBFE03B2B4F90600834204D0B4F90800AB
:100ED800834218BF581C02B070BD4FF6FF73B4228E
:100EE80002814FF408720380428000234FF4166297
:100EF800C3808280C360704710B50446FFF7EDFFDA
:100F0800204610BD10B50446008803B2013306D050
:100F1800FFF782FD2046FFF7E0FF012010BD00200B
:100F280010BD2DE9F04104460D46084602219046C1
:100F38001F46FFF7EFFC022801D0002619E02846DB
:100F480000F0EEF906460028F7D0B4F90030013376
:100F580002D02046FFF7D6FFBDF918302580E38080
:100F6800BDF91C30A4F80280A78023812846FFF72A
:100F78004BFD3046BDE8F081704710B50446FFF7D9
:100F880083F8204610BD000010B50446044B0171DB
:100F980003600846FFF758FD0023A360204610BDF4
:100FA80060190A080079FFF757BD00230360436002
:100FB8008360037310B50C6804604C6844608C68E7
:100FC80084600B604B608B6010BD10B504460068F0
:100FD800FFF7E2FD204610BD10B50446006808B1D1
:100FE800FFF7DAFD00232360A360636010BD38B506
:100FF80004460D4600680131FFF7D6FD10B184E8BC
:101008002100012038BD10B50368044613B14368B8
:101018008B4207D22046FFF7EAFF20B1A3680BB93D
:1010280022681370012010BD70B50E4611460446A3
:101038001546FFF7E8FF18B92046FFF7CDFF04E093
:10104800A5602068314600F056FB204670BD38B5D3
:101058000023044603604360836003730D4639B17F
:10106800084600F050FB294602462046FFF7DCFF01
:10107800204638BD38B505460C4641B1084600F053
:1010880042FB214602462846FFF7CEFF01E0FFF764
:10109800A3FF284638BD10B5044600238AB0036074
:1010A800436083600373084601A900F0FBF82046FB
:1010B80001A9FFF7DFFF20460AB010BD70B504464E
:1010C80083680E4609B9002070BD62B1D51829465B
:1010D800FFF799FF0028F6D02068A3683146184426
:1010E80000F009FBA560012070BD0B4610B59A6899
:1010F80009680446FFF7E2FF10B92046FFF76CFFC6
:10110800204610BD2DE9F0411C469A4288BF13467F
:101118000E46154688BF25460D4988BF1C4607461A
:10112800FFF795FFB1688D420FD88C4228BF0C4657
:101138003368002213F804801A5531683846294468
:10114800FFF798FF336803F804803846BDE8F0815C
:10115800B2180A08006808B100F08ABA704700207F
:10116800FFF7DABC024B1A68024B1A60704700BFDF
:1011780000030020CC0300207047007CFFF7A4BCCC
:10118800007CFFF7B1BC007CFFF7A6BC007CFFF732
:10119800B3BC007CFFF790BC10B50446FEF774FFA3
:1011A800204610BD10B50446002060604FF47A70E8
:1011B800A060054821742060084611461A46FFF7CA
:1011C80073FC204610BD00BFA0190A08007CFFF779
:1011D8009BBC000010B5074C00212046064A074B6F
:1011E800FFF7E0FF2046BDE810400549054A00F03A
:1011F80071B900BFD003002026040020E4030020BA
:1012080081110A086C030020704770470020FFF71F
:101218003BBC0120FFF738BC08B5FFF72DFC08BD23
:1012280008B50846FFF738FC012008BD10B504468C
:10123800FEF72AFF204610BD002242604FF47A7262
:101248008260014A02607047C8190A080846FFF719
:101258000BBC000010B5054C2046FFF7EDFF2046FB
:10126800BDE810400249034A00F034B96804002080
:1012780013120A086C03002070470020014602463A
:10128800FFF77ABC0348044B0449054A036000F0A1
:1012980021B900BF78040020F0190A0881120A0851
:1012A8006C0300202DE9F0411546023A232A28BF95
:1012B8000A258CB000220A2D03460C468DF82C20F6
:1012C80007D1904205DA2D2201F101080A70434244
:1012D80001E0ABB1A0460DF12B07012619462A46BD
:1012E80001A800F0D7F9029A0136092ACCBF3723A2
:1012F8003023134407F80139019B002BEED106E097
:10130800A04630238DF82B300DF12A0702264046DF
:10131800791C324600F0D2F920460CB0BDE8F081C5
:1013280010B504460E48FFF73DFE28B1A4F10D03A1
:10133800022B01D8002010BD0A48FFF7CFFC08B1E6
:10134800012CF7D90848FFF741FF30B1A4F112008A
:10135800012894BF0020012010BD012010BD00BF4E
:10136800AC04002080040020D0030020172838B5E2
:1013780005460C460AD8FF2908D0FFF7D1FF28B147
:1013880028462146BDE83840FFF7CCBA38BD10B52D
:101398000446FFF7CFFA0438C0B2012808D920461E
:1013A800FFF7BEFF20B12046BDE81040FFF7CABADC
:1013B800002010BD10B5044609289CBF0A34A4B209
:1013C8002046FFF7ADFF50B120460321FFF7A2FAF0
:1013D800032804D12046BDE81040FFF7CBBA00200F
:1013E80010BD38B504460D46FFF79AFFE8B1204610
:1013F8000421FFF78FFA0428204604D12946BDE8C6
:101408003840FFF7AFBA0221FFF784FA02280CD15F
:101418002046FFF78FFA012801D0042805D120467D
:10142800E9B2BDE83840FFF7ADBA38BD0148FFF76B
:1014380010BC00BF7C04002010B5064C00212046DB
:10144800FFF73AFC2046BDE810400349034A00F084
:1014580041B800BF800400206B0C0A086C03002010
:1014680013B5084C002100910A460B462046FFF7A9
:1014780069FC20460449054A02B0BDE8104000F066
:1014880029B800BF94040020F10C0A086C0300205E
:1014980070B50C4E0C4D0D4C30460021FFF774FD15
:1014A80030460B4E2246294600F014F830460121FA
:1014B800FFF76AFD304629462246BDE8704000F035
:1014C80009B800BFAC040020810F0A086C03002093
:1014D800B804002003460846194600F0CDB80000BD
:1014E800244B1A68D0075CBF01221A60224B1A6885
:1014F800D1075CBF01221A60204B1A68D2075CBF73
:1015080001221A601E4B1A68D0075CBF01221A60BC
:101518001C4B1A68D1075CBF01221A601A4B1A6863
:10152800D2075CBF01221A60184B1A68D0075CBF4B
:1015380001221A60164B1A68D1075CBF01221A6093
:10154800144B1A68D2075CBF01221A60124B1A6842
:10155800D0075CBF01221A60104B1A68D1075CBF24
:1015680001221A600E4B1A68D2075CBF01221A606A
:10157800704700BFF0040020EC040020E8040020BD
:10158800E4040020E0040020DC040020D80400204B
:10159800D4040020D0040020CC040020C80400207B
:1015A800C404002008B5FFF707FB0000244B1A68A5
:1015B800D0075CBF01221A60224B1A68D1075CBFB2
:1015C80001221A60204B1A68D2075CBF01221A60F8
:1015D8001E4B1A68D0075CBF01221A601C4B1A68A0
:1015E800D1075CBF01221A601A4B1A68D2075CBF88
:1015F80001221A60184B1A68D0075CBF01221A60D2
:10160800164B1A68D1075CBF01221A60144B1A687E
:10161800D2075CBF01221A60124B1A68D0075CBF60
:1016280001221A60104B1A68D1075CBF01221A60A8
:101638000E4B1A68D2075CBF01221A60704700BFC0
:10164800200500201C050020180500201405002096
:10165800100500200C0500200805002004050020C6
:1016680000050020FC040020F8040020F4040020F9
:1016780000210A2200F0D6B838B5054604480C46C1
:10168800134620B1022029462246AFF3008038BD18
:101698000000000010B591FBF2F4002902FB1413BE
:1016A80004DB002B07DA01349B1A04E0002BC4BFCB
:1016B80004F1FF349B180460436010BD10B5431E4D
:1016C8000A44914204D011F8014B03F8014FF8E79E
:1016D80010BD03460244934202D003F8011BFAE707
:1016E800704710F8012B11F8013B012A28BF9A42D4
:1016F800F7D0D01A7047034611F8012B03F8012BD5
:10170800002AF9D17047034613F8012B002AFBD1B0
:10171800181A0138704700002DE9F0470F46404C71
:10172800D4F800903D4615F801EB09EB0E046678F5
:1017380006F0080404F0FF060CB12F46F2E77446E1
:101748002D2C03D1BD1C7C78012603E02B2C04BF73
:101758007C78BD1C13B1102B0AD15AE0302C56D11D
:101768002C7804F0DF04582C4CD16C781023023507
:10177800002E14BF4FF000486FF00048B8FBF3FA92
:101788000027BE4603FB1A8809EB040C9CF801C02D
:101798001CF0040F01D0303C0BE01CF0030C1BD0F4
:1017A800BCF1010F0CBF4FF0370C4FF0570CCCEBCE
:1017B80004049C4210DAB7F1FF3F0AD0D64506D898
:1017C80001D1444503DC03FB0E4E012701E04FF035
:1017D800FF3715F8014BD7E77C1C73460AD1002E5A
:1017E8004FF0220114BF4FF000436FF00043016037
:1017F8002AB911E00EB1CEF100036AB107B1691E32
:10180800116009E03024002BB2D10823B0E70A2385
:10181800AEE7302CACD1A3E71846BDE8F08700BF8F
:101828000403002030B505460C461346034A2946F2
:1018380010682246BDE83040FFF76EBF68030020FD
:1018480045000A081D000A0885000A0889000A08D8
:10185800000000004F726967696E616C20537472F2
:10186800696E673A005245443A00475245454E3A38
:1018780000424C55453A0072656400626C7565001B
:10188800677265656E0052474200323030007379E6
:101898006E63536572766F73004F726967696E6124
:1018A8006C20537472696E673A20004E65636B3A18
:1018B800200052696768743A20004C6566743A20C3
:1018C800006E65636B00726967687441726D006CC5
:1018D80065667441726D006272696768746E6573DB
:1018E80073006D6F7665536572766F73006D6F6FF9
:1018F800646C696768747300656E61626C65536CCB
:1019080061766500746F67676C6557656D6F000079
:1019180000000000000000006B0C0A08B50C0A0863
:101928008D0C0A086D0C0A08950C0A089D0C0A080B
:10193800A50C0A08AD0C0A08000000000000000011
:10194800FF0C0A08F10C0A08F30C0A080000000052
:101958000000000000000000810F0A08830F0A0839
:101968005A00252B3033643A253032750025592D1D
:10197800256D2D25645425483A254D3A2553257A59
:101988000061736374696D65000000000000000069
:10199800000000000000000081110A08A1110A08D7
:1019A8009B110A08690D0A0883110A088F110A0891
:1019B80089110A0895110A080000000000000000BB
:1019C80013120A0835120A0829120A08690D0A08AA
:1019D80021120A0815120A081B120A0811120A080D
:1019E800000000000000000083120A0800202020E8
:1019F80020202020202028282828282020202020B7
:101A08002020202020202020202020202088101086
:101A180010101010101010101010101010040404E2
:101A280004040404040404101010101010104141A0
:101A3800414141410101010101010101010101018E
:101A480001010101010101011010101010104242A2
:101A5800424242420202020202020202020202025E
:101A680002020202020202021010101020000000FE
:101A7800000000000000000000000000000000005E
:101A8800000000000000000000000000000000004E
:101A9800000000000000000000000000000000003E
:101AA800000000000000000000000000000000002E
:101AB800000000000000000000000000000000001E
:101AC800000000000000000000000000000000000E
:101AD80000000000000000000000000000000000FE
:101AE80000000000000000000000000000430000AB
:101AF800F9070A08D1080A0867110A086D110A08C7
:101B0800DD110A085D120A088D120A0835140A0840
:101B180041140A0869140A0899140A08E9140A08F9
:081B2800B5150A0800000000D9
:101B300089190A08F4190A080000000000000000D2
:101B40000000000000000000000000000000000095
:101B50000000000000000000F51A0A080000000064
:101B60000000000000000000000000000000000075
:101B70000000000000000000000000000000000065
:101B80000000000000000000000000000000000055
:0C1B90000000000000000000080300201E
:101B9C00FFFFFFFF00000102030405060708090A06
:101BAC000B0C0D0E0F101112131415161718191A01
:081BBC001B1C1D1E1F20280048
:041BC4007856341209
:04000005080A0018CD
:00000001FF
