:02000004080AE8
:1000000000000A08F41B0A080000030006000501AE
:080010000402070000000000DB
:1000180070180A08074B70B51E46074C0025E41AED
:10002800A408A54204D056F8253098470135F8E7CA
:1000380070BD00BF201B0A08541B0A0809480A495A
:1000480008B5884205D0094A824202D0121A01F046
:1000580049FB0748074A0021121A01F04EFB0648DF
:1000680008BD00BF00030020601B0A086C030020C5
:100078006C030020240500202405002000F0F4BBB8
:1000880000F024BC00F094BD00F09ABD90F8202048
:10009800012322B1002280F820201846704780F8FA
:1000A800203002207047000030B50C4695B0054658
:1000B80000226846032301F039F804A821460422E7
:1000C800072301F033F808220B23214608A801F082
:1000D8002DF8684601F052F881B2032001F095F935
:1000E800684601F04BF8286104A801F047F881B28E
:1000F800132001F08AF904A801F040F8686108A803
:1001080001F03CF881B2112001F07FF908A801F054
:1001180035F83749A86110A800F0ADFF214610A8AE
:1001280000F0F7FF0346334C1968204600F061FEE3
:1001380010A800F05EFF304910A800F09CFF684648
:1001480001F01CF80A2201460CA800F0B8FF0CA91F
:1001580010A800F0DEFF03462046196800F049FEAB
:100168000CA800F046FF10A800F043FF234910A890
:1001780000F081FF04A801F001F80A2201460CA84A
:1001880000F09DFF0CA910A800F0C3FF034620460D
:10019800196800F02EFE0CA800F02BFF10A800F044
:1001A80028FF174910A800F066FF08A800F0E6FF2E
:1001B8000A2201460CA800F082FF0CA910A800F042
:1001C800A8FF03462046196800F013FE0CA800F0AB
:1001D80010FF10A800F00DFF08A800F00AFF04A8FF
:1001E80000F007FF684600F004FF012015B030BD9D
:1001F80084180A086804002095180A089A180A083A
:10020800A1180A080222002300F0AABC022A38B565
:10021800044605D0032A0FD0012A10D10B6809E043
:100228000C200D68FFF72EFF034618B195E807006C
:1002380083E80700236002E00068FFF725FF00203D
:1002480038BD000070B58B6806460C46B3B1102067
:10025800FFF718FF054688B100238360A36833B110
:10026800214602229847E368EB60A368AB60294601
:100278003246BDE87040024800F0D6BC002070BD90
:10028800F90B0A0830B5026885B05368946813F012
:10029800010F4FEA6303156818BFE25868461C440B
:1002A80018BF555900F095FE69462046A8470446F0
:1002B800684600F09EFE204605B030BD10B5836844
:1002C800044613B1014603229847204610BD002278
:1002D800026042608260026142618261C26180F8AC
:1002E8002020704738B50446FF21032001F08DF81F
:1002F800FF23002523611120002101F086F8A56164
:100308001320294601F081F8656138BD38B50546E6
:1003180000240320002101F078F81120FF212C612E
:1003280001F073F8AC611320214601F06EF86C619E
:1003380038BD38B5044600250320002101F065F8D2
:1003480011202946256101F060F8A5611320FF21DD
:1003580001F05BF8FF23636138BD000038B5064C37
:100368000546204600F08EFD322000F083FC204632
:1003780000F0ACFD286038BD7003002038B5064C8D
:100388000546204600F07EFD322000F073FC204632
:1003980000F09CFD686038BD8403002038B5064C29
:1003A8000546204600F06EFD322000F063FC204632
:1003B80000F08CFDA86038BD9403002030B50C46D1
:1003C80095B0002203230546684600F0AFFE04A856
:1003D80021460422072300F0A9FE08A82146082286
:1003E8000B2300F0A3FE684600F0C8FEC82806D01C
:1003F800684600F0C3FE01462846FFF7AFFF04A891
:1004080000F0BCFEC82806D004A800F0B7FE0146DC
:100418002846FFF7B3FF08A800F0B0FEC82806D0AA
:1004280008A800F0ABFE01462846FFF7B7FF10A862
:10043800354900F020FE214610A800F06AFE034668
:100448003248196800F0D5FC10A800F0D2FD3049F8
:1004580010A800F010FE684600F090FE0A2201463F
:100468000CA800F02CFE0CA910A800F052FE0346C0
:100478002648196800F0BDFC0CA800F0BAFD10A8C9
:1004880000F0B7FD234910A800F0F5FD04A800F01E
:1004980075FE0A2201460CA800F011FE0CA910A84E
:1004A80000F037FE03461948196800F0A2FC0CA8B2
:1004B80000F09FFD10A800F09CFD174910A800F05F
:1004C800DAFD08A800F05AFE0A2201460CA800F03E
:1004D800F6FD0CA910A800F01CFE03460B4819688D
:1004E80000F087FC0CA800F084FD10A800F081FD46
:1004F80008A800F07EFD04A800F07BFD684600F027
:1005080078FD012015B030BDC9180A08680400201C
:10051800DB180A08E2180A08EA180A08F0B590F881
:10052800203091B00446002B61D01146684600F097
:10053800A2FD04A869460022032300F0F7FD08A8DD
:1005480069460322062300F0F1FD0CA8694606223D
:10055800092300F0EBFD04A800F010FE002840DBA2
:1005680004A800F00BFEB4283BDC012608A800F024
:1005780005FE002837DB08A800F000FEB42832DCAE
:1005880001270CA800F0FAFD00282EDB0CA800F0CB
:10059800F5FDB42829DC012536B104A800F0EEFDEC
:1005A80001462046FFF7DAFE37B108A800F0E6FD5D
:1005B80001462046FFF7E2FE35B10CA800F0DEFD4B
:1005C80001462046FFF7EAFE0CA800F012FD08A835
:1005D80000F00FFD04A800F00CFD684600F009FDCE
:1005E80005E00026C2E70027CBE70025D4E711B0D5
:1005F800F0BD000038B590F8203004461546CBB160
:1006080010460D4901F081F810B92046FFF76AFE3F
:1006180028460A4901F079F810B92046FFF776FE16
:100628002846074901F071F820B92046BDE838404E
:10063800FFF77FBE38BD00BFA7180A08AB180A0825
:10064800B0180A0810B504460A2000F0C7FEE0609A
:10065800064800F03BFC2060054800F037FC60606D
:10066800044800F033FCA06010BD00BF70030020F8
:10067800840300209403002038B5002383600446D7
:100688000C200D46FFF7FEFC034628B195E8030051
:1006980083E80300AA689A602360034B2046E3605E
:1006A800024BA36038BD00BF8D020A0815020A0874
:1006B80070B5054690B00024B42621468DE8500058
:1006C8004FF408724FF416633E4800F03EFC8DE884
:1006D800500001214FF408724FF416633A4800F0B5
:1006E80034FC4FF408724FF416638DE85000022171
:1006F800364800F02AFC2146072000F04BFE214630
:10070800062000F047FE21460A2000F043FE21465D
:100718000D2000F03FFE0320012100F03BFE1120D8
:10072800012100F037FE1320012100F033FE1220D2
:10073800012100F02FFE29462548FFF763FD291DFA
:100748002448FFF75FFD05F108012348FFF75AFD2C
:1007580005F10C012148FFF755FD214B03A90CA811
:10076800039304940595FFF787FF0CA91D48FFF72D
:1007780069FD0CA8FFF7A2FD1B4B06A90CA8069360
:1007880007940895FFF778FF0CA91848FFF75AFD5A
:100798000CA8FFF793FD164B09A90CA809930A9416
:1007A8000B95FFF769FF0CA91248FFF74BFD0CA842
:1007B800FFF784FD10484FF4165100F05BFD10B0B0
:1007C80070BD00BF84030020940300207003002044
:1007D800F1180A08F6180A08FF180A0807190A087B
:1007E800C5030A0812190A08B1000A081D190A08DF
:1007F80095000A0828190A086804002008B500F0BE
:1008080095F8064B1860064800F08AFB054800F08A
:1008180087FBBDE80840044800F082BB8003002045
:1008280084030020940300207003002003460A4636
:1008380001481946FFF772BEA403002003460A4682
:1008480001481946FFF7D6BEA403002007B50021CA
:1008580000913C220B46034800F092F903B05DF882
:1008680004FB00BF34190A0837B5134D0024284685
:10087800FFF71EFF00F04AFA22462346009401942F
:100888000E490F4800F084F922462346009401944B
:100898000C490D4800F07CF928465A21FFF75EFD07
:1008A80028465A21FFF77AFD28465A2103B0BDE8A9
:1008B8003040FFF763BD00BFA403002035080A08D5
:1008C800BE180A0845080A08B6180A0808B50C2010
:1008D80000F071FD012804D1FFF7B8FFFA2000F0FD
:1008E800C9F9BDE808400148FFF7ACBEA4030020E1
:1008F80008B500F01BF8034B1860BDE80840024833
:10090800FFF7E5BCC8030020A403002008B5024B8C
:100918001B689B6A019308BD9C01060808B5024B39
:100928001B685B6B019308BD9C01060808B5024B68
:100938001B681B68019308BDB001060808B5024B87
:100948001B685B68019308BDB001060808B5024B37
:100958001B689B68019308BDB001060808B5024BE7
:100968001B68DB68019308BDB001060808B5024B97
:100978001B685B69019308BDB001060808B5024B06
:100988001B681B6A019308BDB001060808B5024B35
:100998001B689B6A019308BDB001060808B5024BA5
:1009A8001B681B6B019308BDB001060808B5024B14
:1009B8001B685B6B019308BDB001060808B5024BC4
:1009C8001B681B6E019308BDAC01060808B5024BF5
:1009D8001B685B6E019308BDAC01060808B5024BA5
:1009E8001B689B6E019308BDAC01060808B5024B55
:1009F8001B68DB6E019308BDAC01060808B5024B05
:100A08001B681B6F019308BDAC01060808B5024BB3
:100A18001B685B6F019308BDAC01060808B5034B62
:100A28001B68D3F88030019308BD0000AC010608AC
:100A380008B5024B1B681B69019308BDA80106088D
:100A480008B5024B1B685B69019308BDA80106083D
:100A580008B5024B1B689B69019308BDA8010608ED
:100A680008B5024B1B68DB69019308BDA80106089D
:100A780008B5024B1B68DB69019308BDB401060881
:100A880008B5024B1B681B6A019308BDB401060830
:100A980008B5024B1B681B68019308BDC401060812
:100AA80008B5024B1B685B68019308BDC4010608C2
:100AB80008B5024B1B689B68019308BDC401060872
:100AC80008B5024B1B68DB68019308BDC401060822
:100AD80008B5024B1B689B69019308BDC401060851
:100AE80008B5024B1B685B6A019308BDC401060880
:100AF80008B5024B1B689B6A019308BDC401060830
:100B080008B5024B1B68DB6A019308BDC4010608DF
:100B180008B5024B1B681B6B019308BDC40106088E
:100B280008B5024B1B685B6B019308BDC40106083E
:100B380008B5024B1B689B6B019308BDC4010608EE
:100B480008B5024B1B685B68019308BDA401060841
:100B580008B5024B1B685B69019308BDA401060830
:100B680008B5024B1B681B68019308BDCC01060839
:100B780008B5024B1B685B68019308BDCC010608E9
:100B880008B5024B1B681B6A019308BDCC01060817
:100B980008B5024B1B685B6A019308BDCC010608C7
:100BA80008B5024B1B681B69019308BDC8010608FC
:100BB80008B5024B1B681B68019308BDA001060815
:100BC80008B5024B1B685B68019308BDA0010608C5
:100BD80008B5024B1B689B68019308BDA001060875
:100BE80008B5024B1B68DB6A019308BDA001060823
:100BF80030B5044689B0684600F03DFAA3680BB9E1
:100C080000F0E4FC694604A8E56800F0E2F904A9EC
:100C18002046A847044604A800F0EBF9684600F00F
:100C2800E8F9204609B030BDF0B507460E4615462E
:100C380085B0102422466846002100F05EFD224659
:100C48006846002100F059FD002069460246ADF8CB
:100C58000040029703960195FFF78AFF05B0F0BDA3
:100C680010B5029C401AE41A6043521A90FBF2F045
:100C7800184410BD0021FFF76BBF10B50446FFF7FD
:100C880045FEFFF74BFE204610BD7047F8B50646F7
:100C980015460C468F18BC4206D0336830469B6810
:100CA80014F8011B9847F6E72846F8BD007C002297
:100CB800FFF784BE007C0021FFF788BE007C00217E
:100CC800FFF78CBE007C0021FFF790BE007C00215E
:100CD800FFF794BE10B50446FFF7D6F9204610BDBD
:100CE80010B504464FF47A728260054A00234360C7
:100CF8000260017408461946FFF790FE204610BDB1
:100D080048190A08007C0021FFF780BEFFF736BEAD
:100D1800704710B50446FFF7B7F9204610BDF8B57F
:100D28000F4600F10806051D002416F8011D384677
:100D38000A2200F094F8AE42044407D0002CF4D004
:100D480038462E2100F046F80444EEE72046F8BD68
:100D580010B59DF8084044EA032343EA024242EAF8
:100D6800016104234160037510BD000037B50446D6
:100D7800044D05609DF818500095FFF7E9FF2046DF
:100D880003B030BD70190A08F8B506460D468F182D
:100D98000024BD420CD0336830469B6815F8011B0F
:100DA8009847002801DB0444F3E7002C08BF0446F9
:100DB8002046F8BD70B505460C46084649B100F016
:100DC800B6FC2B68024621462846BDE87040DB6821
:100DD800184770BD03689B68184738B50D2105464C
:100DE800FFF7F8FF0A2104462846FFF7F3FF2044DF
:100DF80038BD38B50546FFF7DDFF04462846FFF73E
:100E0800ECFF204438BD012A98BF0A2230B50B46B2
:100E18008BB000218DF824100DF12304B3FBF2F5FB
:100E280005FB1233DBB2092B94BF30333733DBB207
:100E3800214604F801392B46002DEFD1FFF7BAFF00
:100E48000BB030BD10B52AB9BDE810400368C9B26F
:100E58009B681847D2B2BDE81040FFF7D4BFFFF730
:100E6800F1BF0246008803B201330AD05388928842
:100E7800994203D391420B4628BF13461946FFF700
:100E8800E7BD704737B504460846B4F90610B4F90B
:100E98000820884203DB9042A8BF104600E00846BD
:100EA800A58863880095FFF7DBFEE16801442046CA
:100EB80089B203B0BDE83040FFF7D3BF008803B262
:100EC800013301D0FFF7CCBD0020704773B504464D
:100ED800FFF7F4FFE568B4F90860B4F906306188F3
:100EE800A2880096401BFFF7BBFE03B2B4F90600C8
:100EF800834204D0B4F90800834218BF581C02B0DA
:100F080070BD4FF6FF73B42202814FF4087203805C
:100F1800428000234FF41662C3808280C36070470A
:100F280010B50446FFF7EDFF204610BD10B5044686
:100F3800008803B2013306D0FFF782FD2046FFF791
:100F4800E0FF012010BD002010BD2DE9F04104464E
:100F58000D460846022190461F46FFF7EFFC02287F
:100F680001D0002619E0284600F0EEF906460028D0
:100F7800F7D0B4F90030013302D02046FFF7D6FF8E
:100F8800BDF918302580E380BDF91C30A4F8028033
:100F9800A78023812846FFF74BFD3046BDE8F08146
:100FA800704710B50446FFF76FF8204610BD0000E3
:100FB80010B50446044B017103600846FFF758FD5D
:100FC8000023A360204610BD88190A080079FFF79E
:100FD80057BD0023036043608360037310B50C683A
:100FE80004604C6844608C6884600B604B608B6064
:100FF80010BD10B504460068FFF7E2FD204610BD9D
:1010080010B50446006808B1FFF7DAFD0023236035
:10101800A360636010BD38B504460D460068013111
:10102800FFF7D6FD10B184E82100012038BD10B5C6
:101038000368044613B143688B4207D22046FFF782
:10104800EAFF20B1A3680BB922681370012010BD14
:1010580070B50E46114604461546FFF7E8FF18B965
:101068002046FFF7CDFF04E0A5602068314600F078
:1010780056FB204670BD38B5002304460360436024
:10108800836003730D4639B1084600F050FB2946CA
:1010980002462046FFF7DCFF204638BD38B5054636
:1010A8000C4641B1084600F042FB2146024628465C
:1010B800FFF7CEFF01E0FFF7A3FF284638BD10B5C4
:1010C800044600238AB003604360836003730846C4
:1010D80001A900F0FBF8204601A9FFF7DFFF204631
:1010E8000AB010BD70B5044683680E4609B90020E1
:1010F80070BD62B1D5182946FFF799FF0028F6D0D0
:101108002068A3683146184400F009FBA560012057
:1011180070BD0B4610B59A6809680446FFF7E2FFF0
:1011280010B92046FFF76CFF204610BD2DE9F041AD
:101138001C469A4288BF13460E46154688BF254668
:101148000D4988BF1C460746FFF795FFB1688D42D9
:101158000FD88C4228BF0C463368002213F804804D
:101168001A55316838462944FFF798FF336803F861
:1011780004803846BDE8F081DA180A08006808B12A
:1011880000F08ABA70470020FFF7DABC024B1A68F1
:10119800024B1A60704700BF00030020CC030020F8
:1011A8007047007CFFF7A4BC007CFFF7B1BC007C53
:1011B800FFF7A6BC007CFFF7B3BC007CFFF790BC30
:1011C80010B50446FEF760FF204610BD10B5044672
:1011D800002060604FF47A70A06005482174206098
:1011E800084611461A46FFF773FC204610BD00BF9B
:1011F800C8190A08007CFFF79BBC000010B5074C13
:1012080000212046064A074BFFF7E0FF2046BDE8CD
:1012180010400549054A00F071B900BFD00300200D
:1012280026040020E4030020A9110A086C0300200A
:10123800704770470020FFF73BBC0120FFF738BC20
:1012480008B5FFF72DFC08BD08B50846FFF738FCC0
:10125800012008BD10B50446FEF716FF204610BD54
:10126800002242604FF47A728260014A026070473D
:10127800F0190A080846FFF70BBC000010B5054C2A
:101288002046FFF7EDFF2046BDE810400249034A1B
:1012980000F034B9680400203B120A086C030020EF
:1012A8007047002001460246FFF77ABC0348044B0A
:1012B8000449054A036000F021B900BF7804002002
:1012C800181A0A08A9120A086C0300202DE9F0412F
:1012D8001546023A232A28BF0A258CB000220A2D77
:1012E80003460C468DF82C2007D1904205DA2D22B2
:1012F80001F101080A70434201E0ABB1A0460DF1CB
:101308002B07012619462A4601A800F0D7F9029AA8
:101318000136092ACCBF37233023134407F8013993
:10132800019B002BEED106E0A04630238DF82B3030
:101338000DF12A0702264046791C324600F0D2F900
:1013480020460CB0BDE8F08110B504460E48FFF702
:101358003DFE28B1A4F10D03022B01D8002010BDD9
:101368000A48FFF7CFFC08B1012CF7D90848FFF766
:1013780041FF30B1A4F11200012894BF00200120E0
:1013880010BD012010BD00BFAC0400208004002067
:10139800D0030020172838B505460C460AD8FF297F
:1013A80008D0FFF7D1FF28B128462146BDE83840CC
:1013B800FFF7CCBA38BD10B50446FFF7CFFA0438AA
:1013C800C0B2012808D92046FFF7BEFF20B1204649
:1013D800BDE81040FFF7CABA002010BD10B504469A
:1013E80009289CBF0A34A4B22046FFF7ADFF50B1CC
:1013F80020460321FFF7A2FA032804D12046BDE8BE
:101408001040FFF7CBBA002010BD38B504460D4692
:10141800FFF79AFFE8B120460421FFF78FFA042866
:10142800204604D12946BDE83840FFF7AFBA02216B
:10143800FFF784FA02280CD12046FFF78FFA01281B
:1014480001D0042805D12046E9B2BDE83840FFF7AD
:10145800ADBA38BD0148FFF710BC00BF7C040020BE
:1014680010B5064C00212046FFF73AFC2046BDE89F
:1014780010400349034A00F041B800BF800400202F
:10148800930C0A086C03002013B5084C0021009146
:101498000A460B462046FFF769FC20460449054AE0
:1014A80002B0BDE8104000F029B800BF9404002045
:1014B800190D0A086C03002070B50C4E0C4D0D4C2C
:1014C80030460021FFF774FD30460B4E2246294670
:1014D80000F014F830460121FFF76AFD304629462E
:1014E8002246BDE8704000F009B800BFAC040020F7
:1014F800A90F0A086C030020B80400200346084618
:10150800194600F0CDB80000244B1A68D0075CBF1C
:1015180001221A60224B1A68D1075CBF01221A60A7
:10152800204B1A68D2075CBF01221A601E4B1A684A
:10153800D0075CBF01221A601C4B1A68D1075CBF38
:1015480001221A601A4B1A68D2075CBF01221A607E
:10155800184B1A68D0075CBF01221A60164B1A682C
:10156800D1075CBF01221A60144B1A68D2075CBF0E
:1015780001221A60124B1A68D0075CBF01221A6058
:10158800104B1A68D1075CBF01221A600E4B1A680B
:10159800D2075CBF01221A60704700BFF004002028
:1015A800EC040020E8040020E4040020E00400200B
:1015B800DC040020D8040020D4040020D00400203B
:1015C800CC040020C8040020C404002008B5FFF79C
:1015D80007FB0000244B1A68D0075CBF01221A6081
:1015E800224B1A68D1075CBF01221A60204B1A6887
:1015F800D2075CBF01221A601E4B1A68D0075CBF75
:1016080001221A601C4B1A68D1075CBF01221A60BC
:101618001A4B1A68D2075CBF01221A60184B1A6865
:10162800D0075CBF01221A60164B1A68D1075CBF4D
:1016380001221A60144B1A68D2075CBF01221A6093
:10164800124B1A68D0075CBF01221A60104B1A6847
:10165800D1075CBF01221A600E4B1A68D2075CBF23
:1016680001221A60704700BF200500201C050020D9
:101678001805002014050020100500200C05002086
:10168800080500200405002000050020FC040020B7
:10169800F8040020F404002000210A2200F0D6B843
:1016A80038B5054604480C46134620B102202946A1
:1016B8002246AFF3008038BD0000000010B591FB52
:1016C800F2F4002902FB141304DB002B07DA0134BF
:1016D8009B1A04E0002BC4BF04F1FF349B1804607C
:1016E800436010BD10B5431E0A44914204D011F85E
:1016F800014B03F8014FF8E710BD0346024493423B
:1017080002D003F8011BFAE7704710F8012B11F813
:10171800013B012A28BF9A42F7D0D01A70470346E6
:1017280011F8012B03F8012B002AF9D17047034661
:1017380013F8012B002AFBD1181A01387047000052
:101748002DE9F0470F46404CD4F800903D4615F877
:1017580001EB09EB0E04667806F0080404F0FF06B6
:101768000CB12F46F2E774462D2C03D1BD1C7C78B2
:10177800012603E02B2C04BF7C78BD1C13B1102B71
:101788000AD15AE0302C56D12C7804F0DF04582CBA
:101798004CD16C7810230235002E14BF4FF000484E
:1017A8006FF00048B8FBF3FA0027BE4603FB1A881F
:1017B80009EB040C9CF801C01CF0040F01D0303C6C
:1017C8000BE01CF0030C1BD0BCF1010F0CBF4FF059
:1017D800370C4FF0570CCCEB04049C4210DAB7F1ED
:1017E800FF3F0AD0D64506D801D1444503DC03FBA8
:1017F8000E4E012701E04FF0FF3715F8014BD7E7F0
:101808007C1C73460AD1002E4FF0220114BF4FF002
:1018180000436FF0004301602AB911E00EB1CEF128
:1018280000036AB107B1691E116009E03024002B7A
:10183800B2D10823B0E70A23AEE7302CACD1A3E736
:101848001846BDE8F08700BF0403002030B5054600
:101858000C461346034A294610682246BDE8304024
:10186800FFF76EBF6803002045000A081D000A083C
:1018780085000A0889000A08000000004F7269679D
:10188800696E616C20537472696E673A0052454400
:101898003A00475245454E3A00424C55453A007287
:1018A800656400626C756500677265656E00524715
:1018B80042003230300073796E63536572766F730D
:1018C800004F726967696E616C20537472696E6744
:1018D8003A20004E65636B3A200052696768743A93
:1018E80020004C6566743A20006E65636B0072696F
:1018F80067687441726D006C65667441726D006250
:1019080072696768746E657373006D6F7665536589
:1019180072766F73006D6F6F646C696768747300BB
:10192800656E61626C65536C61766500746F67679C
:101938006C6557656D6F0000000000000000000036
:10194800930C0A08DD0C0A08B50C0A08950C0A085D
:10195800BD0C0A08C50C0A08CD0C0A08D50C0A08E3
:101968000000000000000000270D0A08190D0A08F1
:101978001B0D0A0800000000000000000000000025
:10198800A90F0A08AB0F0A085A00252B3033643A0E
:10199800253032750025592D256D2D25645425488F
:1019A8003A254D3A2553257A0061736374696D654C
:1019B800000000000000000000000000000000001F
:1019C800A9110A08C9110A08C3110A08910D0A08C1
:1019D800AB110A08B7110A08B1110A08BD110A08A3
:1019E80000000000000000003B120A085D120A080F
:1019F80051120A08910D0A0849120A083D120A08EC
:101A080043120A0839120A0800000000000000000A
:101A1800AB120A080020202020202020202028287F
:101A28002828282020202020202020202020202096
:101A380020202020208810101010101010101010D6
:101A48001010101010040404040404040404041006
:101A58001010101010104141414141410101010194
:101A6800010101010101010101010101010101015E
:101A7800101010101010424242424242020202026A
:101A8800020202020202020202020202020202022E
:101A980010101010200000000000000000000000DE
:101AA800000000000000000000000000000000002E
:101AB800000000000000000000000000000000001E
:101AC800000000000000000000000000000000000E
:101AD80000000000000000000000000000000000FE
:101AE80000000000000000000000000000000000EE
:101AF80000000000000000000000000000000000DE
:101B080000000000000000000000000000000000CD
:101B1800000000000043000005080A08F9080A0848
:101B28008F110A0895110A0805120A0885120A0871
:101B3800B5120A085D140A0869140A0891140A08FB
:101B4800C1140A0811150A08DD150A08000000006A
:081B5800000000000000000085
:101B6000B1190A081C1A0A08000000000000000051
:101B70000000000000000000000000000000000065
:101B800000000000000000001D1B0A08000000000B
:101B90000000000000000000000000000000000045
:101BA0000000000000000000000000000000000035
:101BB0000000000000000000000000000000000025
:0C1BC000000000000000000008030020EE
:101BCC00FFFFFFFF00000102030405060708090AD6
:101BDC000B0C0D0E0F101112131415161718191AD1
:081BEC001B1C1D1E1F20280018
:041BF40078563412D9
:04000005080A0018CD
:00000001FF
